{
	"contracts/BlindAuction.sol": {
		"SimpleAuction": {
			"abi": [
				{
					"inputs": [
						{
							"internalType": "uint256",
							"name": "biddingTime",
							"type": "uint256"
						},
						{
							"internalType": "address payable",
							"name": "beneficiaryAddress",
							"type": "address"
						}
					],
					"stateMutability": "nonpayable",
					"type": "constructor"
				},
				{
					"inputs": [],
					"name": "AuctionAlreadyEnded",
					"type": "error"
				},
				{
					"inputs": [],
					"name": "AuctionEndAlreadyCalled",
					"type": "error"
				},
				{
					"inputs": [],
					"name": "AuctionNotYetEnded",
					"type": "error"
				},
				{
					"inputs": [
						{
							"internalType": "uint256",
							"name": "highestBid",
							"type": "uint256"
						}
					],
					"name": "BidNotHighEnough",
					"type": "error"
				},
				{
					"anonymous": false,
					"inputs": [
						{
							"indexed": false,
							"internalType": "address",
							"name": "winner",
							"type": "address"
						},
						{
							"indexed": false,
							"internalType": "uint256",
							"name": "amount",
							"type": "uint256"
						}
					],
					"name": "AuctionEnded",
					"type": "event"
				},
				{
					"anonymous": false,
					"inputs": [
						{
							"indexed": false,
							"internalType": "address",
							"name": "bidder",
							"type": "address"
						},
						{
							"indexed": false,
							"internalType": "uint256",
							"name": "amount",
							"type": "uint256"
						}
					],
					"name": "HighestBidIncreased",
					"type": "event"
				},
				{
					"stateMutability": "payable",
					"type": "fallback"
				},
				{
					"inputs": [],
					"name": "auctionEnd",
					"outputs": [],
					"stateMutability": "nonpayable",
					"type": "function"
				},
				{
					"inputs": [],
					"name": "auctionEndTime",
					"outputs": [
						{
							"internalType": "uint256",
							"name": "",
							"type": "uint256"
						}
					],
					"stateMutability": "view",
					"type": "function"
				},
				{
					"inputs": [],
					"name": "beneficiary",
					"outputs": [
						{
							"internalType": "address payable",
							"name": "",
							"type": "address"
						}
					],
					"stateMutability": "view",
					"type": "function"
				},
				{
					"inputs": [],
					"name": "bid",
					"outputs": [],
					"stateMutability": "payable",
					"type": "function"
				},
				{
					"inputs": [],
					"name": "highestBid",
					"outputs": [
						{
							"internalType": "uint256",
							"name": "",
							"type": "uint256"
						}
					],
					"stateMutability": "view",
					"type": "function"
				},
				{
					"inputs": [],
					"name": "highestBidder",
					"outputs": [
						{
							"internalType": "address",
							"name": "",
							"type": "address"
						}
					],
					"stateMutability": "view",
					"type": "function"
				},
				{
					"inputs": [],
					"name": "withdraw",
					"outputs": [
						{
							"internalType": "bool",
							"name": "success",
							"type": "bool"
						}
					],
					"stateMutability": "nonpayable",
					"type": "function"
				},
				{
					"stateMutability": "payable",
					"type": "receive"
				}
			],
			"devdoc": {
				"details": "Implements a simple open auction where bidders can place bids and      the highest bidder wins after the auction ends.",
				"kind": "dev",
				"methods": {
					"auctionEnd()": {
						"details": "Ends the auction and transfers the highest bid to the beneficiary.      Can only be called after the auction has ended."
					},
					"bid()": {
						"details": "Allows users to place a bid. If the bid is higher than the current      highest bid, the previous highest bidder's bid is refunded."
					},
					"constructor": {
						"details": "Constructor initializes the auction with a specified duration      and beneficiary address.",
						"params": {
							"beneficiaryAddress": "Address to receive the highest bid",
							"biddingTime": "Duration of the auction (in seconds)"
						}
					},
					"withdraw()": {
						"details": "Allows bidders to withdraw their pending returns if they were outbid.",
						"returns": {
							"success": "True if the withdrawal was successful, false otherwise."
						}
					}
				},
				"title": "SimpleAuction",
				"version": 1
			},
			"evm": {
				"assembly": "    /* \"contracts/BlindAuction.sol\":220:4033  contract SimpleAuction {... */\n  mstore(0x40, 0x80)\n    /* \"contracts/BlindAuction.sol\":1405:1579  constructor(uint256 biddingTime, address payable beneficiaryAddress) {... */\n  callvalue\n  dup1\n  iszero\n  tag_1\n  jumpi\n  0x00\n  dup1\n  revert\ntag_1:\n  pop\n  mload(0x40)\n  sub(codesize, bytecodeSize)\n  dup1\n  bytecodeSize\n  dup4\n  codecopy\n  dup2\n  dup2\n  add\n  0x40\n  mstore\n  dup2\n  add\n  swap1\n  tag_2\n  swap2\n  swap1\n  tag_3\n  jump\t// in\ntag_2:\n    /* \"contracts/BlindAuction.sol\":1498:1516  beneficiaryAddress */\n  dup1\n    /* \"contracts/BlindAuction.sol\":1484:1495  beneficiary */\n  0x00\n  dup1\n    /* \"contracts/BlindAuction.sol\":1484:1516  beneficiary = beneficiaryAddress */\n  0x0100\n  exp\n  dup2\n  sload\n  dup2\n  0xffffffffffffffffffffffffffffffffffffffff\n  mul\n  not\n  and\n  swap1\n  dup4\n  0xffffffffffffffffffffffffffffffffffffffff\n  and\n  mul\n  or\n  swap1\n  sstore\n  pop\n    /* \"contracts/BlindAuction.sol\":1561:1572  biddingTime */\n  dup2\n    /* \"contracts/BlindAuction.sol\":1543:1558  block.timestamp */\n  timestamp\n    /* \"contracts/BlindAuction.sol\":1543:1572  block.timestamp + biddingTime */\n  tag_6\n  swap2\n  swap1\n  tag_7\n  jump\t// in\ntag_6:\n    /* \"contracts/BlindAuction.sol\":1526:1540  auctionEndTime */\n  0x01\n    /* \"contracts/BlindAuction.sol\":1526:1572  auctionEndTime = block.timestamp + biddingTime */\n  dup2\n  swap1\n  sstore\n  pop\n    /* \"contracts/BlindAuction.sol\":1405:1579  constructor(uint256 biddingTime, address payable beneficiaryAddress) {... */\n  pop\n  pop\n    /* \"contracts/BlindAuction.sol\":220:4033  contract SimpleAuction {... */\n  jump(tag_8)\n    /* \"#utility.yul\":88:205   */\ntag_10:\n    /* \"#utility.yul\":197:198   */\n  0x00\n    /* \"#utility.yul\":194:195   */\n  dup1\n    /* \"#utility.yul\":187:199   */\n  revert\n    /* \"#utility.yul\":334:411   */\ntag_12:\n    /* \"#utility.yul\":371:378   */\n  0x00\n    /* \"#utility.yul\":400:405   */\n  dup2\n    /* \"#utility.yul\":389:405   */\n  swap1\n  pop\n    /* \"#utility.yul\":334:411   */\n  swap2\n  swap1\n  pop\n  jump\t// out\n    /* \"#utility.yul\":417:539   */\ntag_13:\n    /* \"#utility.yul\":490:514   */\n  tag_26\n    /* \"#utility.yul\":508:513   */\n  dup2\n    /* \"#utility.yul\":490:514   */\n  tag_12\n  jump\t// in\ntag_26:\n    /* \"#utility.yul\":483:488   */\n  dup2\n    /* \"#utility.yul\":480:515   */\n  eq\n    /* \"#utility.yul\":470:533   */\n  tag_27\n  jumpi\n    /* \"#utility.yul\":529:530   */\n  0x00\n    /* \"#utility.yul\":526:527   */\n  dup1\n    /* \"#utility.yul\":519:531   */\n  revert\n    /* \"#utility.yul\":470:533   */\ntag_27:\n    /* \"#utility.yul\":417:539   */\n  pop\n  jump\t// out\n    /* \"#utility.yul\":545:688   */\ntag_14:\n    /* \"#utility.yul\":602:607   */\n  0x00\n    /* \"#utility.yul\":633:639   */\n  dup2\n    /* \"#utility.yul\":627:640   */\n  mload\n    /* \"#utility.yul\":618:640   */\n  swap1\n  pop\n    /* \"#utility.yul\":649:682   */\n  tag_29\n    /* \"#utility.yul\":676:681   */\n  dup2\n    /* \"#utility.yul\":649:682   */\n  tag_13\n  jump\t// in\ntag_29:\n    /* \"#utility.yul\":545:688   */\n  swap3\n  swap2\n  pop\n  pop\n  jump\t// out\n    /* \"#utility.yul\":694:820   */\ntag_15:\n    /* \"#utility.yul\":731:738   */\n  0x00\n    /* \"#utility.yul\":771:813   */\n  0xffffffffffffffffffffffffffffffffffffffff\n    /* \"#utility.yul\":764:769   */\n  dup3\n    /* \"#utility.yul\":760:814   */\n  and\n    /* \"#utility.yul\":749:814   */\n  swap1\n  pop\n    /* \"#utility.yul\":694:820   */\n  swap2\n  swap1\n  pop\n  jump\t// out\n    /* \"#utility.yul\":826:930   */\ntag_16:\n    /* \"#utility.yul\":871:878   */\n  0x00\n    /* \"#utility.yul\":900:924   */\n  tag_32\n    /* \"#utility.yul\":918:923   */\n  dup3\n    /* \"#utility.yul\":900:924   */\n  tag_15\n  jump\t// in\ntag_32:\n    /* \"#utility.yul\":889:924   */\n  swap1\n  pop\n    /* \"#utility.yul\":826:930   */\n  swap2\n  swap1\n  pop\n  jump\t// out\n    /* \"#utility.yul\":936:1074   */\ntag_17:\n    /* \"#utility.yul\":1017:1049   */\n  tag_34\n    /* \"#utility.yul\":1043:1048   */\n  dup2\n    /* \"#utility.yul\":1017:1049   */\n  tag_16\n  jump\t// in\ntag_34:\n    /* \"#utility.yul\":1010:1015   */\n  dup2\n    /* \"#utility.yul\":1007:1050   */\n  eq\n    /* \"#utility.yul\":997:1068   */\n  tag_35\n  jumpi\n    /* \"#utility.yul\":1064:1065   */\n  0x00\n    /* \"#utility.yul\":1061:1062   */\n  dup1\n    /* \"#utility.yul\":1054:1066   */\n  revert\n    /* \"#utility.yul\":997:1068   */\ntag_35:\n    /* \"#utility.yul\":936:1074   */\n  pop\n  jump\t// out\n    /* \"#utility.yul\":1080:1239   */\ntag_18:\n    /* \"#utility.yul\":1145:1150   */\n  0x00\n    /* \"#utility.yul\":1176:1182   */\n  dup2\n    /* \"#utility.yul\":1170:1183   */\n  mload\n    /* \"#utility.yul\":1161:1183   */\n  swap1\n  pop\n    /* \"#utility.yul\":1192:1233   */\n  tag_37\n    /* \"#utility.yul\":1227:1232   */\n  dup2\n    /* \"#utility.yul\":1192:1233   */\n  tag_17\n  jump\t// in\ntag_37:\n    /* \"#utility.yul\":1080:1239   */\n  swap3\n  swap2\n  pop\n  pop\n  jump\t// out\n    /* \"#utility.yul\":1245:1768   */\ntag_3:\n    /* \"#utility.yul\":1332:1338   */\n  0x00\n    /* \"#utility.yul\":1340:1346   */\n  dup1\n    /* \"#utility.yul\":1389:1391   */\n  0x40\n    /* \"#utility.yul\":1377:1386   */\n  dup4\n    /* \"#utility.yul\":1368:1375   */\n  dup6\n    /* \"#utility.yul\":1364:1387   */\n  sub\n    /* \"#utility.yul\":1360:1392   */\n  slt\n    /* \"#utility.yul\":1357:1476   */\n  iszero\n  tag_39\n  jumpi\n    /* \"#utility.yul\":1395:1474   */\n  tag_40\n  tag_10\n  jump\t// in\ntag_40:\n    /* \"#utility.yul\":1357:1476   */\ntag_39:\n    /* \"#utility.yul\":1515:1516   */\n  0x00\n    /* \"#utility.yul\":1540:1604   */\n  tag_41\n    /* \"#utility.yul\":1596:1603   */\n  dup6\n    /* \"#utility.yul\":1587:1593   */\n  dup3\n    /* \"#utility.yul\":1576:1585   */\n  dup7\n    /* \"#utility.yul\":1572:1594   */\n  add\n    /* \"#utility.yul\":1540:1604   */\n  tag_14\n  jump\t// in\ntag_41:\n    /* \"#utility.yul\":1530:1604   */\n  swap3\n  pop\n    /* \"#utility.yul\":1486:1614   */\n  pop\n    /* \"#utility.yul\":1653:1655   */\n  0x20\n    /* \"#utility.yul\":1679:1751   */\n  tag_42\n    /* \"#utility.yul\":1743:1750   */\n  dup6\n    /* \"#utility.yul\":1734:1740   */\n  dup3\n    /* \"#utility.yul\":1723:1732   */\n  dup7\n    /* \"#utility.yul\":1719:1741   */\n  add\n    /* \"#utility.yul\":1679:1751   */\n  tag_18\n  jump\t// in\ntag_42:\n    /* \"#utility.yul\":1669:1751   */\n  swap2\n  pop\n    /* \"#utility.yul\":1624:1761   */\n  pop\n    /* \"#utility.yul\":1245:1768   */\n  swap3\n  pop\n  swap3\n  swap1\n  pop\n  jump\t// out\n    /* \"#utility.yul\":1774:1954   */\ntag_19:\n    /* \"#utility.yul\":1822:1899   */\n  0x4e487b7100000000000000000000000000000000000000000000000000000000\n    /* \"#utility.yul\":1819:1820   */\n  0x00\n    /* \"#utility.yul\":1812:1900   */\n  mstore\n    /* \"#utility.yul\":1919:1923   */\n  0x11\n    /* \"#utility.yul\":1916:1917   */\n  0x04\n    /* \"#utility.yul\":1909:1924   */\n  mstore\n    /* \"#utility.yul\":1943:1947   */\n  0x24\n    /* \"#utility.yul\":1940:1941   */\n  0x00\n    /* \"#utility.yul\":1933:1948   */\n  revert\n    /* \"#utility.yul\":1960:2151   */\ntag_7:\n    /* \"#utility.yul\":2000:2003   */\n  0x00\n    /* \"#utility.yul\":2019:2039   */\n  tag_45\n    /* \"#utility.yul\":2037:2038   */\n  dup3\n    /* \"#utility.yul\":2019:2039   */\n  tag_12\n  jump\t// in\ntag_45:\n    /* \"#utility.yul\":2014:2039   */\n  swap2\n  pop\n    /* \"#utility.yul\":2053:2073   */\n  tag_46\n    /* \"#utility.yul\":2071:2072   */\n  dup4\n    /* \"#utility.yul\":2053:2073   */\n  tag_12\n  jump\t// in\ntag_46:\n    /* \"#utility.yul\":2048:2073   */\n  swap3\n  pop\n    /* \"#utility.yul\":2096:2097   */\n  dup3\n    /* \"#utility.yul\":2093:2094   */\n  dup3\n    /* \"#utility.yul\":2089:2098   */\n  add\n    /* \"#utility.yul\":2082:2098   */\n  swap1\n  pop\n    /* \"#utility.yul\":2117:2120   */\n  dup1\n    /* \"#utility.yul\":2114:2115   */\n  dup3\n    /* \"#utility.yul\":2111:2121   */\n  gt\n    /* \"#utility.yul\":2108:2144   */\n  iszero\n  tag_47\n  jumpi\n    /* \"#utility.yul\":2124:2142   */\n  tag_48\n  tag_19\n  jump\t// in\ntag_48:\n    /* \"#utility.yul\":2108:2144   */\ntag_47:\n    /* \"#utility.yul\":1960:2151   */\n  swap3\n  swap2\n  pop\n  pop\n  jump\t// out\n    /* \"contracts/BlindAuction.sol\":220:4033  contract SimpleAuction {... */\ntag_8:\n  dataSize(sub_0)\n  dup1\n  dataOffset(sub_0)\n  0x00\n  codecopy\n  0x00\n  return\nstop\n\nsub_0: assembly {\n        /* \"contracts/BlindAuction.sol\":220:4033  contract SimpleAuction {... */\n      mstore(0x40, 0x80)\n      jumpi(tag_1, lt(calldatasize, 0x04))\n      shr(0xe0, calldataload(0x00))\n      dup1\n      0x3ccfd60b\n      gt\n      tag_10\n      jumpi\n      dup1\n      0x3ccfd60b\n      eq\n      tag_6\n      jumpi\n      dup1\n      0x4b449cba\n      eq\n      tag_7\n      jumpi\n      dup1\n      0x91f90157\n      eq\n      tag_8\n      jumpi\n      dup1\n      0xd57bde79\n      eq\n      tag_9\n      jumpi\n      jump(tag_2)\n    tag_10:\n      dup1\n      0x1998aeef\n      eq\n      tag_3\n      jumpi\n      dup1\n      0x2a24f46c\n      eq\n      tag_4\n      jumpi\n      dup1\n      0x38af3eed\n      eq\n      tag_5\n      jumpi\n      jump(tag_2)\n    tag_1:\n      jumpi(tag_2, calldatasize)\n        /* \"contracts/BlindAuction.sol\":3814:3856  revert(\"Direct ETH transfer not allowed.\") */\n      mload(0x40)\n      0x08c379a000000000000000000000000000000000000000000000000000000000\n      dup2\n      mstore\n      0x04\n      add\n      tag_13\n      swap1\n      tag_14\n      jump\t// in\n    tag_13:\n      mload(0x40)\n      dup1\n      swap2\n      sub\n      swap1\n      revert\n        /* \"contracts/BlindAuction.sol\":220:4033  contract SimpleAuction {... */\n    tag_2:\n        /* \"contracts/BlindAuction.sol\":3990:4024  revert(\"Function does not exist.\") */\n      mload(0x40)\n      0x08c379a000000000000000000000000000000000000000000000000000000000\n      dup2\n      mstore\n      0x04\n      add\n      tag_17\n      swap1\n      tag_18\n      jump\t// in\n    tag_17:\n      mload(0x40)\n      dup1\n      swap2\n      sub\n      swap1\n      revert\n        /* \"contracts/BlindAuction.sol\":1752:2551  function bid() external payable {... */\n    tag_3:\n      tag_19\n      tag_20\n      jump\t// in\n    tag_19:\n      stop\n        /* \"contracts/BlindAuction.sol\":3344:3685  function auctionEnd() external {... */\n    tag_4:\n      callvalue\n      dup1\n      iszero\n      tag_21\n      jumpi\n      0x00\n      dup1\n      revert\n    tag_21:\n      pop\n      tag_22\n      tag_23\n      jump\t// in\n    tag_22:\n      stop\n        /* \"contracts/BlindAuction.sol\":326:360  address payable public beneficiary */\n    tag_5:\n      callvalue\n      dup1\n      iszero\n      tag_24\n      jumpi\n      0x00\n      dup1\n      revert\n    tag_24:\n      pop\n      tag_25\n      tag_26\n      jump\t// in\n    tag_25:\n      mload(0x40)\n      tag_27\n      swap2\n      swap1\n      tag_28\n      jump\t// in\n    tag_27:\n      mload(0x40)\n      dup1\n      swap2\n      sub\n      swap1\n      return\n        /* \"contracts/BlindAuction.sol\":2734:3183  function withdraw() external returns (bool success) {... */\n    tag_6:\n      callvalue\n      dup1\n      iszero\n      tag_29\n      jumpi\n      0x00\n      dup1\n      revert\n    tag_29:\n      pop\n      tag_30\n      tag_31\n      jump\t// in\n    tag_30:\n      mload(0x40)\n      tag_32\n      swap2\n      swap1\n      tag_33\n      jump\t// in\n    tag_32:\n      mload(0x40)\n      dup1\n      swap2\n      sub\n      swap1\n      return\n        /* \"contracts/BlindAuction.sol\":417:446  uint256 public auctionEndTime */\n    tag_7:\n      callvalue\n      dup1\n      iszero\n      tag_34\n      jumpi\n      0x00\n      dup1\n      revert\n    tag_34:\n      pop\n      tag_35\n      tag_36\n      jump\t// in\n    tag_35:\n      mload(0x40)\n      tag_37\n      swap2\n      swap1\n      tag_38\n      jump\t// in\n    tag_37:\n      mload(0x40)\n      dup1\n      swap2\n      sub\n      swap1\n      return\n        /* \"contracts/BlindAuction.sol\":490:518  address public highestBidder */\n    tag_8:\n      callvalue\n      dup1\n      iszero\n      tag_39\n      jumpi\n      0x00\n      dup1\n      revert\n    tag_39:\n      pop\n      tag_40\n      tag_41\n      jump\t// in\n    tag_40:\n      mload(0x40)\n      tag_42\n      swap2\n      swap1\n      tag_43\n      jump\t// in\n    tag_42:\n      mload(0x40)\n      dup1\n      swap2\n      sub\n      swap1\n      return\n        /* \"contracts/BlindAuction.sol\":558:583  uint256 public highestBid */\n    tag_9:\n      callvalue\n      dup1\n      iszero\n      tag_44\n      jumpi\n      0x00\n      dup1\n      revert\n    tag_44:\n      pop\n      tag_45\n      tag_46\n      jump\t// in\n    tag_45:\n      mload(0x40)\n      tag_47\n      swap2\n      swap1\n      tag_38\n      jump\t// in\n    tag_47:\n      mload(0x40)\n      dup1\n      swap2\n      sub\n      swap1\n      return\n        /* \"contracts/BlindAuction.sol\":1752:2551  function bid() external payable {... */\n    tag_20:\n        /* \"contracts/BlindAuction.sol\":1816:1830  auctionEndTime */\n      sload(0x01)\n        /* \"contracts/BlindAuction.sol\":1798:1813  block.timestamp */\n      timestamp\n        /* \"contracts/BlindAuction.sol\":1798:1830  block.timestamp > auctionEndTime */\n      gt\n        /* \"contracts/BlindAuction.sol\":1794:1860  if (block.timestamp > auctionEndTime) revert AuctionAlreadyEnded() */\n      iszero\n      tag_49\n      jumpi\n        /* \"contracts/BlindAuction.sol\":1839:1860  AuctionAlreadyEnded() */\n      mload(0x40)\n      0xd02e774d00000000000000000000000000000000000000000000000000000000\n      dup2\n      mstore\n      0x04\n      add\n      mload(0x40)\n      dup1\n      swap2\n      sub\n      swap1\n      revert\n        /* \"contracts/BlindAuction.sol\":1794:1860  if (block.timestamp > auctionEndTime) revert AuctionAlreadyEnded() */\n    tag_49:\n        /* \"contracts/BlindAuction.sol\":1887:1897  highestBid */\n      sload(0x03)\n        /* \"contracts/BlindAuction.sol\":1874:1883  msg.value */\n      callvalue\n        /* \"contracts/BlindAuction.sol\":1874:1897  msg.value <= highestBid */\n      gt\n        /* \"contracts/BlindAuction.sol\":1870:1934  if (msg.value <= highestBid) revert BidNotHighEnough(highestBid) */\n      tag_50\n      jumpi\n        /* \"contracts/BlindAuction.sol\":1923:1933  highestBid */\n      sload(0x03)\n        /* \"contracts/BlindAuction.sol\":1906:1934  BidNotHighEnough(highestBid) */\n      mload(0x40)\n      0x4e12c1bb00000000000000000000000000000000000000000000000000000000\n      dup2\n      mstore\n      0x04\n      add\n      tag_51\n      swap2\n      swap1\n      tag_38\n      jump\t// in\n    tag_51:\n      mload(0x40)\n      dup1\n      swap2\n      sub\n      swap1\n      revert\n        /* \"contracts/BlindAuction.sol\":1870:1934  if (msg.value <= highestBid) revert BidNotHighEnough(highestBid) */\n    tag_50:\n        /* \"contracts/BlindAuction.sol\":1963:1964  0 */\n      0x00\n        /* \"contracts/BlindAuction.sol\":1949:1959  highestBid */\n      sload(0x03)\n        /* \"contracts/BlindAuction.sol\":1949:1964  highestBid != 0 */\n      eq\n        /* \"contracts/BlindAuction.sol\":1945:2545  if (highestBid != 0) {... */\n      tag_52\n      jumpi\n        /* \"contracts/BlindAuction.sol\":1980:2000  uint256 refundAmount */\n      0x00\n        /* \"contracts/BlindAuction.sol\":2003:2013  highestBid */\n      sload(0x03)\n        /* \"contracts/BlindAuction.sol\":1980:2013  uint256 refundAmount = highestBid */\n      swap1\n      pop\n        /* \"contracts/BlindAuction.sol\":2027:2057  address payable previousBidder */\n      0x00\n        /* \"contracts/BlindAuction.sol\":2068:2081  highestBidder */\n      0x02\n      0x00\n      swap1\n      sload\n      swap1\n      0x0100\n      exp\n      swap1\n      div\n      0xffffffffffffffffffffffffffffffffffffffff\n      and\n        /* \"contracts/BlindAuction.sol\":2027:2082  address payable previousBidder = payable(highestBidder) */\n      swap1\n      pop\n        /* \"contracts/BlindAuction.sol\":2170:2180  msg.sender */\n      caller\n        /* \"contracts/BlindAuction.sol\":2154:2167  highestBidder */\n      0x02\n      0x00\n        /* \"contracts/BlindAuction.sol\":2154:2180  highestBidder = msg.sender */\n      0x0100\n      exp\n      dup2\n      sload\n      dup2\n      0xffffffffffffffffffffffffffffffffffffffff\n      mul\n      not\n      and\n      swap1\n      dup4\n      0xffffffffffffffffffffffffffffffffffffffff\n      and\n      mul\n      or\n      swap1\n      sstore\n      pop\n        /* \"contracts/BlindAuction.sol\":2207:2216  msg.value */\n      callvalue\n        /* \"contracts/BlindAuction.sol\":2194:2204  highestBid */\n      0x03\n        /* \"contracts/BlindAuction.sol\":2194:2216  highestBid = msg.value */\n      dup2\n      swap1\n      sstore\n      pop\n        /* \"contracts/BlindAuction.sol\":2236:2278  HighestBidIncreased(msg.sender, msg.value) */\n      0xf4757a49b326036464bec6fe419a4ae38c8a02ce3e68bf0809674f6aab8ad300\n        /* \"contracts/BlindAuction.sol\":2256:2266  msg.sender */\n      caller\n        /* \"contracts/BlindAuction.sol\":2268:2277  msg.value */\n      callvalue\n        /* \"contracts/BlindAuction.sol\":2236:2278  HighestBidIncreased(msg.sender, msg.value) */\n      mload(0x40)\n      tag_53\n      swap3\n      swap2\n      swap1\n      tag_54\n      jump\t// in\n    tag_53:\n      mload(0x40)\n      dup1\n      swap2\n      sub\n      swap1\n      log1\n        /* \"contracts/BlindAuction.sol\":2343:2357  previousBidder */\n      dup1\n        /* \"contracts/BlindAuction.sol\":2343:2366  previousBidder.transfer */\n      0xffffffffffffffffffffffffffffffffffffffff\n      and\n        /* \"contracts/BlindAuction.sol\":2343:2380  previousBidder.transfer(refundAmount) */\n      0x08fc\n        /* \"contracts/BlindAuction.sol\":2367:2379  refundAmount */\n      dup4\n        /* \"contracts/BlindAuction.sol\":2343:2380  previousBidder.transfer(refundAmount) */\n      swap1\n      dup2\n      iszero\n      mul\n      swap1\n      mload(0x40)\n      0x00\n      mload(0x40)\n      dup1\n      dup4\n      sub\n      dup2\n      dup6\n      dup9\n      dup9\n      call\n      swap4\n      pop\n      pop\n      pop\n      pop\n      iszero\n      dup1\n      iszero\n      tag_56\n      jumpi\n      returndatasize\n      0x00\n      dup1\n      returndatacopy\n      revert(0x00, returndatasize)\n    tag_56:\n      pop\n        /* \"contracts/BlindAuction.sol\":1966:2391  {... */\n      pop\n      pop\n        /* \"contracts/BlindAuction.sol\":1945:2545  if (highestBid != 0) {... */\n      jump(tag_57)\n    tag_52:\n        /* \"contracts/BlindAuction.sol\":2427:2437  msg.sender */\n      caller\n        /* \"contracts/BlindAuction.sol\":2411:2424  highestBidder */\n      0x02\n      0x00\n        /* \"contracts/BlindAuction.sol\":2411:2437  highestBidder = msg.sender */\n      0x0100\n      exp\n      dup2\n      sload\n      dup2\n      0xffffffffffffffffffffffffffffffffffffffff\n      mul\n      not\n      and\n      swap1\n      dup4\n      0xffffffffffffffffffffffffffffffffffffffff\n      and\n      mul\n      or\n      swap1\n      sstore\n      pop\n        /* \"contracts/BlindAuction.sol\":2464:2473  msg.value */\n      callvalue\n        /* \"contracts/BlindAuction.sol\":2451:2461  highestBid */\n      0x03\n        /* \"contracts/BlindAuction.sol\":2451:2473  highestBid = msg.value */\n      dup2\n      swap1\n      sstore\n      pop\n        /* \"contracts/BlindAuction.sol\":2492:2534  HighestBidIncreased(msg.sender, msg.value) */\n      0xf4757a49b326036464bec6fe419a4ae38c8a02ce3e68bf0809674f6aab8ad300\n        /* \"contracts/BlindAuction.sol\":2512:2522  msg.sender */\n      caller\n        /* \"contracts/BlindAuction.sol\":2524:2533  msg.value */\n      callvalue\n        /* \"contracts/BlindAuction.sol\":2492:2534  HighestBidIncreased(msg.sender, msg.value) */\n      mload(0x40)\n      tag_58\n      swap3\n      swap2\n      swap1\n      tag_54\n      jump\t// in\n    tag_58:\n      mload(0x40)\n      dup1\n      swap2\n      sub\n      swap1\n      log1\n        /* \"contracts/BlindAuction.sol\":1945:2545  if (highestBid != 0) {... */\n    tag_57:\n        /* \"contracts/BlindAuction.sol\":1752:2551  function bid() external payable {... */\n      jump\t// out\n        /* \"contracts/BlindAuction.sol\":3344:3685  function auctionEnd() external {... */\n    tag_23:\n        /* \"contracts/BlindAuction.sol\":3407:3421  auctionEndTime */\n      sload(0x01)\n        /* \"contracts/BlindAuction.sol\":3389:3404  block.timestamp */\n      timestamp\n        /* \"contracts/BlindAuction.sol\":3389:3421  block.timestamp < auctionEndTime */\n      lt\n        /* \"contracts/BlindAuction.sol\":3385:3450  if (block.timestamp < auctionEndTime) revert AuctionNotYetEnded() */\n      iszero\n      tag_60\n      jumpi\n        /* \"contracts/BlindAuction.sol\":3430:3450  AuctionNotYetEnded() */\n      mload(0x40)\n      0x44cee29000000000000000000000000000000000000000000000000000000000\n      dup2\n      mstore\n      0x04\n      add\n      mload(0x40)\n      dup1\n      swap2\n      sub\n      swap1\n      revert\n        /* \"contracts/BlindAuction.sol\":3385:3450  if (block.timestamp < auctionEndTime) revert AuctionNotYetEnded() */\n    tag_60:\n        /* \"contracts/BlindAuction.sol\":3464:3469  ended */\n      0x05\n      0x00\n      swap1\n      sload\n      swap1\n      0x0100\n      exp\n      swap1\n      div\n      0xff\n      and\n        /* \"contracts/BlindAuction.sol\":3460:3503  if (ended) revert AuctionEndAlreadyCalled() */\n      iszero\n      tag_61\n      jumpi\n        /* \"contracts/BlindAuction.sol\":3478:3503  AuctionEndAlreadyCalled() */\n      mload(0x40)\n      0x61cfdcf800000000000000000000000000000000000000000000000000000000\n      dup2\n      mstore\n      0x04\n      add\n      mload(0x40)\n      dup1\n      swap2\n      sub\n      swap1\n      revert\n        /* \"contracts/BlindAuction.sol\":3460:3503  if (ended) revert AuctionEndAlreadyCalled() */\n    tag_61:\n        /* \"contracts/BlindAuction.sol\":3522:3526  true */\n      0x01\n        /* \"contracts/BlindAuction.sol\":3514:3519  ended */\n      0x05\n      0x00\n        /* \"contracts/BlindAuction.sol\":3514:3526  ended = true */\n      0x0100\n      exp\n      dup2\n      sload\n      dup2\n      0xff\n      mul\n      not\n      and\n      swap1\n      dup4\n      iszero\n      iszero\n      mul\n      or\n      swap1\n      sstore\n      pop\n        /* \"contracts/BlindAuction.sol\":3541:3580  AuctionEnded(highestBidder, highestBid) */\n      0xdaec4582d5d9595688c8c98545fdd1c696d41c6aeaeb636737e84ed2f5c00eda\n        /* \"contracts/BlindAuction.sol\":3554:3567  highestBidder */\n      0x02\n      0x00\n      swap1\n      sload\n      swap1\n      0x0100\n      exp\n      swap1\n      div\n      0xffffffffffffffffffffffffffffffffffffffff\n      and\n        /* \"contracts/BlindAuction.sol\":3569:3579  highestBid */\n      sload(0x03)\n        /* \"contracts/BlindAuction.sol\":3541:3580  AuctionEnded(highestBidder, highestBid) */\n      mload(0x40)\n      tag_62\n      swap3\n      swap2\n      swap1\n      tag_54\n      jump\t// in\n    tag_62:\n      mload(0x40)\n      dup1\n      swap2\n      sub\n      swap1\n      log1\n        /* \"contracts/BlindAuction.sol\":3646:3657  beneficiary */\n      0x00\n      dup1\n      sload\n      swap1\n      0x0100\n      exp\n      swap1\n      div\n      0xffffffffffffffffffffffffffffffffffffffff\n      and\n        /* \"contracts/BlindAuction.sol\":3646:3666  beneficiary.transfer */\n      0xffffffffffffffffffffffffffffffffffffffff\n      and\n        /* \"contracts/BlindAuction.sol\":3646:3678  beneficiary.transfer(highestBid) */\n      0x08fc\n        /* \"contracts/BlindAuction.sol\":3667:3677  highestBid */\n      sload(0x03)\n        /* \"contracts/BlindAuction.sol\":3646:3678  beneficiary.transfer(highestBid) */\n      swap1\n      dup2\n      iszero\n      mul\n      swap1\n      mload(0x40)\n      0x00\n      mload(0x40)\n      dup1\n      dup4\n      sub\n      dup2\n      dup6\n      dup9\n      dup9\n      call\n      swap4\n      pop\n      pop\n      pop\n      pop\n      iszero\n      dup1\n      iszero\n      tag_64\n      jumpi\n      returndatasize\n      0x00\n      dup1\n      returndatacopy\n      revert(0x00, returndatasize)\n    tag_64:\n      pop\n        /* \"contracts/BlindAuction.sol\":3344:3685  function auctionEnd() external {... */\n      jump\t// out\n        /* \"contracts/BlindAuction.sol\":326:360  address payable public beneficiary */\n    tag_26:\n      0x00\n      dup1\n      sload\n      swap1\n      0x0100\n      exp\n      swap1\n      div\n      0xffffffffffffffffffffffffffffffffffffffff\n      and\n      dup2\n      jump\t// out\n        /* \"contracts/BlindAuction.sol\":2734:3183  function withdraw() external returns (bool success) {... */\n    tag_31:\n        /* \"contracts/BlindAuction.sol\":2772:2784  bool success */\n      0x00\n        /* \"contracts/BlindAuction.sol\":2796:2810  uint256 amount */\n      dup1\n        /* \"contracts/BlindAuction.sol\":2813:2827  pendingReturns */\n      0x04\n        /* \"contracts/BlindAuction.sol\":2813:2839  pendingReturns[msg.sender] */\n      0x00\n        /* \"contracts/BlindAuction.sol\":2828:2838  msg.sender */\n      caller\n        /* \"contracts/BlindAuction.sol\":2813:2839  pendingReturns[msg.sender] */\n      0xffffffffffffffffffffffffffffffffffffffff\n      and\n      0xffffffffffffffffffffffffffffffffffffffff\n      and\n      dup2\n      mstore\n      0x20\n      add\n      swap1\n      dup2\n      mstore\n      0x20\n      add\n      0x00\n      keccak256\n      sload\n        /* \"contracts/BlindAuction.sol\":2796:2839  uint256 amount = pendingReturns[msg.sender] */\n      swap1\n      pop\n        /* \"contracts/BlindAuction.sol\":2862:2863  0 */\n      0x00\n        /* \"contracts/BlindAuction.sol\":2853:2859  amount */\n      dup2\n        /* \"contracts/BlindAuction.sol\":2853:2863  amount > 0 */\n      gt\n        /* \"contracts/BlindAuction.sol\":2849:3156  if (amount > 0) {... */\n      iszero\n      tag_66\n      jumpi\n        /* \"contracts/BlindAuction.sol\":2908:2909  0 */\n      0x00\n        /* \"contracts/BlindAuction.sol\":2879:2893  pendingReturns */\n      0x04\n        /* \"contracts/BlindAuction.sol\":2879:2905  pendingReturns[msg.sender] */\n      0x00\n        /* \"contracts/BlindAuction.sol\":2894:2904  msg.sender */\n      caller\n        /* \"contracts/BlindAuction.sol\":2879:2905  pendingReturns[msg.sender] */\n      0xffffffffffffffffffffffffffffffffffffffff\n      and\n      0xffffffffffffffffffffffffffffffffffffffff\n      and\n      dup2\n      mstore\n      0x20\n      add\n      swap1\n      dup2\n      mstore\n      0x20\n      add\n      0x00\n      keccak256\n        /* \"contracts/BlindAuction.sol\":2879:2909  pendingReturns[msg.sender] = 0 */\n      dup2\n      swap1\n      sstore\n      pop\n        /* \"contracts/BlindAuction.sol\":2925:2934  bool sent */\n      0x00\n        /* \"contracts/BlindAuction.sol\":2948:2958  msg.sender */\n      caller\n        /* \"contracts/BlindAuction.sol\":2940:2964  payable(msg.sender).call */\n      0xffffffffffffffffffffffffffffffffffffffff\n      and\n        /* \"contracts/BlindAuction.sol\":2972:2978  amount */\n      dup3\n        /* \"contracts/BlindAuction.sol\":2940:2983  payable(msg.sender).call{value: amount}(\"\") */\n      mload(0x40)\n      tag_67\n      swap1\n      tag_68\n      jump\t// in\n    tag_67:\n      0x00\n      mload(0x40)\n      dup1\n      dup4\n      sub\n      dup2\n      dup6\n      dup8\n      gas\n      call\n      swap3\n      pop\n      pop\n      pop\n      returndatasize\n      dup1\n      0x00\n      dup2\n      eq\n      tag_71\n      jumpi\n      mload(0x40)\n      swap2\n      pop\n      and(add(returndatasize, 0x3f), not(0x1f))\n      dup3\n      add\n      0x40\n      mstore\n      returndatasize\n      dup3\n      mstore\n      returndatasize\n      0x00\n      0x20\n      dup5\n      add\n      returndatacopy\n      jump(tag_70)\n    tag_71:\n      0x60\n      swap2\n      pop\n    tag_70:\n      pop\n        /* \"contracts/BlindAuction.sol\":2924:2983  (bool sent, ) = payable(msg.sender).call{value: amount}(\"\") */\n      pop\n      swap1\n      pop\n        /* \"contracts/BlindAuction.sol\":3002:3006  sent */\n      dup1\n        /* \"contracts/BlindAuction.sol\":2997:3146  if (!sent) {... */\n      tag_72\n      jumpi\n        /* \"contracts/BlindAuction.sol\":3055:3061  amount */\n      dup2\n        /* \"contracts/BlindAuction.sol\":3026:3040  pendingReturns */\n      0x04\n        /* \"contracts/BlindAuction.sol\":3026:3052  pendingReturns[msg.sender] */\n      0x00\n        /* \"contracts/BlindAuction.sol\":3041:3051  msg.sender */\n      caller\n        /* \"contracts/BlindAuction.sol\":3026:3052  pendingReturns[msg.sender] */\n      0xffffffffffffffffffffffffffffffffffffffff\n      and\n      0xffffffffffffffffffffffffffffffffffffffff\n      and\n      dup2\n      mstore\n      0x20\n      add\n      swap1\n      dup2\n      mstore\n      0x20\n      add\n      0x00\n      keccak256\n        /* \"contracts/BlindAuction.sol\":3026:3061  pendingReturns[msg.sender] = amount */\n      dup2\n      swap1\n      sstore\n      pop\n        /* \"contracts/BlindAuction.sol\":3126:3131  false */\n      0x00\n        /* \"contracts/BlindAuction.sol\":3119:3131  return false */\n      swap3\n      pop\n      pop\n      pop\n      jump(tag_65)\n        /* \"contracts/BlindAuction.sol\":2997:3146  if (!sent) {... */\n    tag_72:\n        /* \"contracts/BlindAuction.sol\":2865:3156  {... */\n      pop\n        /* \"contracts/BlindAuction.sol\":2849:3156  if (amount > 0) {... */\n    tag_66:\n        /* \"contracts/BlindAuction.sol\":3172:3176  true */\n      0x01\n        /* \"contracts/BlindAuction.sol\":3165:3176  return true */\n      swap2\n      pop\n      pop\n        /* \"contracts/BlindAuction.sol\":2734:3183  function withdraw() external returns (bool success) {... */\n    tag_65:\n      swap1\n      jump\t// out\n        /* \"contracts/BlindAuction.sol\":417:446  uint256 public auctionEndTime */\n    tag_36:\n      sload(0x01)\n      dup2\n      jump\t// out\n        /* \"contracts/BlindAuction.sol\":490:518  address public highestBidder */\n    tag_41:\n      0x02\n      0x00\n      swap1\n      sload\n      swap1\n      0x0100\n      exp\n      swap1\n      div\n      0xffffffffffffffffffffffffffffffffffffffff\n      and\n      dup2\n      jump\t// out\n        /* \"contracts/BlindAuction.sol\":558:583  uint256 public highestBid */\n    tag_46:\n      sload(0x03)\n      dup2\n      jump\t// out\n        /* \"#utility.yul\":7:176   */\n    tag_73:\n        /* \"#utility.yul\":91:102   */\n      0x00\n        /* \"#utility.yul\":125:131   */\n      dup3\n        /* \"#utility.yul\":120:123   */\n      dup3\n        /* \"#utility.yul\":113:132   */\n      mstore\n        /* \"#utility.yul\":165:169   */\n      0x20\n        /* \"#utility.yul\":160:163   */\n      dup3\n        /* \"#utility.yul\":156:170   */\n      add\n        /* \"#utility.yul\":141:170   */\n      swap1\n      pop\n        /* \"#utility.yul\":7:176   */\n      swap3\n      swap2\n      pop\n      pop\n      jump\t// out\n        /* \"#utility.yul\":182:364   */\n    tag_74:\n        /* \"#utility.yul\":322:356   */\n      0x44697265637420455448207472616e73666572206e6f7420616c6c6f7765642e\n        /* \"#utility.yul\":318:319   */\n      0x00\n        /* \"#utility.yul\":310:316   */\n      dup3\n        /* \"#utility.yul\":306:320   */\n      add\n        /* \"#utility.yul\":299:357   */\n      mstore\n        /* \"#utility.yul\":182:364   */\n      pop\n      jump\t// out\n        /* \"#utility.yul\":370:736   */\n    tag_75:\n        /* \"#utility.yul\":512:515   */\n      0x00\n        /* \"#utility.yul\":533:600   */\n      tag_94\n        /* \"#utility.yul\":597:599   */\n      0x20\n        /* \"#utility.yul\":592:595   */\n      dup4\n        /* \"#utility.yul\":533:600   */\n      tag_73\n      jump\t// in\n    tag_94:\n        /* \"#utility.yul\":526:600   */\n      swap2\n      pop\n        /* \"#utility.yul\":609:702   */\n      tag_95\n        /* \"#utility.yul\":698:701   */\n      dup3\n        /* \"#utility.yul\":609:702   */\n      tag_74\n      jump\t// in\n    tag_95:\n        /* \"#utility.yul\":727:729   */\n      0x20\n        /* \"#utility.yul\":722:725   */\n      dup3\n        /* \"#utility.yul\":718:730   */\n      add\n        /* \"#utility.yul\":711:730   */\n      swap1\n      pop\n        /* \"#utility.yul\":370:736   */\n      swap2\n      swap1\n      pop\n      jump\t// out\n        /* \"#utility.yul\":742:1161   */\n    tag_14:\n        /* \"#utility.yul\":908:912   */\n      0x00\n        /* \"#utility.yul\":946:948   */\n      0x20\n        /* \"#utility.yul\":935:944   */\n      dup3\n        /* \"#utility.yul\":931:949   */\n      add\n        /* \"#utility.yul\":923:949   */\n      swap1\n      pop\n        /* \"#utility.yul\":995:1004   */\n      dup2\n        /* \"#utility.yul\":989:993   */\n      dup2\n        /* \"#utility.yul\":985:1005   */\n      sub\n        /* \"#utility.yul\":981:982   */\n      0x00\n        /* \"#utility.yul\":970:979   */\n      dup4\n        /* \"#utility.yul\":966:983   */\n      add\n        /* \"#utility.yul\":959:1006   */\n      mstore\n        /* \"#utility.yul\":1023:1154   */\n      tag_97\n        /* \"#utility.yul\":1149:1153   */\n      dup2\n        /* \"#utility.yul\":1023:1154   */\n      tag_75\n      jump\t// in\n    tag_97:\n        /* \"#utility.yul\":1015:1154   */\n      swap1\n      pop\n        /* \"#utility.yul\":742:1161   */\n      swap2\n      swap1\n      pop\n      jump\t// out\n        /* \"#utility.yul\":1167:1341   */\n    tag_76:\n        /* \"#utility.yul\":1307:1333   */\n      0x46756e6374696f6e20646f6573206e6f742065786973742e0000000000000000\n        /* \"#utility.yul\":1303:1304   */\n      0x00\n        /* \"#utility.yul\":1295:1301   */\n      dup3\n        /* \"#utility.yul\":1291:1305   */\n      add\n        /* \"#utility.yul\":1284:1334   */\n      mstore\n        /* \"#utility.yul\":1167:1341   */\n      pop\n      jump\t// out\n        /* \"#utility.yul\":1347:1713   */\n    tag_77:\n        /* \"#utility.yul\":1489:1492   */\n      0x00\n        /* \"#utility.yul\":1510:1577   */\n      tag_100\n        /* \"#utility.yul\":1574:1576   */\n      0x18\n        /* \"#utility.yul\":1569:1572   */\n      dup4\n        /* \"#utility.yul\":1510:1577   */\n      tag_73\n      jump\t// in\n    tag_100:\n        /* \"#utility.yul\":1503:1577   */\n      swap2\n      pop\n        /* \"#utility.yul\":1586:1679   */\n      tag_101\n        /* \"#utility.yul\":1675:1678   */\n      dup3\n        /* \"#utility.yul\":1586:1679   */\n      tag_76\n      jump\t// in\n    tag_101:\n        /* \"#utility.yul\":1704:1706   */\n      0x20\n        /* \"#utility.yul\":1699:1702   */\n      dup3\n        /* \"#utility.yul\":1695:1707   */\n      add\n        /* \"#utility.yul\":1688:1707   */\n      swap1\n      pop\n        /* \"#utility.yul\":1347:1713   */\n      swap2\n      swap1\n      pop\n      jump\t// out\n        /* \"#utility.yul\":1719:2138   */\n    tag_18:\n        /* \"#utility.yul\":1885:1889   */\n      0x00\n        /* \"#utility.yul\":1923:1925   */\n      0x20\n        /* \"#utility.yul\":1912:1921   */\n      dup3\n        /* \"#utility.yul\":1908:1926   */\n      add\n        /* \"#utility.yul\":1900:1926   */\n      swap1\n      pop\n        /* \"#utility.yul\":1972:1981   */\n      dup2\n        /* \"#utility.yul\":1966:1970   */\n      dup2\n        /* \"#utility.yul\":1962:1982   */\n      sub\n        /* \"#utility.yul\":1958:1959   */\n      0x00\n        /* \"#utility.yul\":1947:1956   */\n      dup4\n        /* \"#utility.yul\":1943:1960   */\n      add\n        /* \"#utility.yul\":1936:1983   */\n      mstore\n        /* \"#utility.yul\":2000:2131   */\n      tag_103\n        /* \"#utility.yul\":2126:2130   */\n      dup2\n        /* \"#utility.yul\":2000:2131   */\n      tag_77\n      jump\t// in\n    tag_103:\n        /* \"#utility.yul\":1992:2131   */\n      swap1\n      pop\n        /* \"#utility.yul\":1719:2138   */\n      swap2\n      swap1\n      pop\n      jump\t// out\n        /* \"#utility.yul\":2144:2270   */\n    tag_78:\n        /* \"#utility.yul\":2181:2188   */\n      0x00\n        /* \"#utility.yul\":2221:2263   */\n      0xffffffffffffffffffffffffffffffffffffffff\n        /* \"#utility.yul\":2214:2219   */\n      dup3\n        /* \"#utility.yul\":2210:2264   */\n      and\n        /* \"#utility.yul\":2199:2264   */\n      swap1\n      pop\n        /* \"#utility.yul\":2144:2270   */\n      swap2\n      swap1\n      pop\n      jump\t// out\n        /* \"#utility.yul\":2276:2380   */\n    tag_79:\n        /* \"#utility.yul\":2321:2328   */\n      0x00\n        /* \"#utility.yul\":2350:2374   */\n      tag_106\n        /* \"#utility.yul\":2368:2373   */\n      dup3\n        /* \"#utility.yul\":2350:2374   */\n      tag_78\n      jump\t// in\n    tag_106:\n        /* \"#utility.yul\":2339:2374   */\n      swap1\n      pop\n        /* \"#utility.yul\":2276:2380   */\n      swap2\n      swap1\n      pop\n      jump\t// out\n        /* \"#utility.yul\":2386:2528   */\n    tag_80:\n        /* \"#utility.yul\":2489:2521   */\n      tag_108\n        /* \"#utility.yul\":2515:2520   */\n      dup2\n        /* \"#utility.yul\":2489:2521   */\n      tag_79\n      jump\t// in\n    tag_108:\n        /* \"#utility.yul\":2484:2487   */\n      dup3\n        /* \"#utility.yul\":2477:2522   */\n      mstore\n        /* \"#utility.yul\":2386:2528   */\n      pop\n      pop\n      jump\t// out\n        /* \"#utility.yul\":2534:2788   */\n    tag_28:\n        /* \"#utility.yul\":2643:2647   */\n      0x00\n        /* \"#utility.yul\":2681:2683   */\n      0x20\n        /* \"#utility.yul\":2670:2679   */\n      dup3\n        /* \"#utility.yul\":2666:2684   */\n      add\n        /* \"#utility.yul\":2658:2684   */\n      swap1\n      pop\n        /* \"#utility.yul\":2694:2781   */\n      tag_110\n        /* \"#utility.yul\":2778:2779   */\n      0x00\n        /* \"#utility.yul\":2767:2776   */\n      dup4\n        /* \"#utility.yul\":2763:2780   */\n      add\n        /* \"#utility.yul\":2754:2760   */\n      dup5\n        /* \"#utility.yul\":2694:2781   */\n      tag_80\n      jump\t// in\n    tag_110:\n        /* \"#utility.yul\":2534:2788   */\n      swap3\n      swap2\n      pop\n      pop\n      jump\t// out\n        /* \"#utility.yul\":2794:2884   */\n    tag_81:\n        /* \"#utility.yul\":2828:2835   */\n      0x00\n        /* \"#utility.yul\":2871:2876   */\n      dup2\n        /* \"#utility.yul\":2864:2877   */\n      iszero\n        /* \"#utility.yul\":2857:2878   */\n      iszero\n        /* \"#utility.yul\":2846:2878   */\n      swap1\n      pop\n        /* \"#utility.yul\":2794:2884   */\n      swap2\n      swap1\n      pop\n      jump\t// out\n        /* \"#utility.yul\":2890:2999   */\n    tag_82:\n        /* \"#utility.yul\":2971:2992   */\n      tag_113\n        /* \"#utility.yul\":2986:2991   */\n      dup2\n        /* \"#utility.yul\":2971:2992   */\n      tag_81\n      jump\t// in\n    tag_113:\n        /* \"#utility.yul\":2966:2969   */\n      dup3\n        /* \"#utility.yul\":2959:2993   */\n      mstore\n        /* \"#utility.yul\":2890:2999   */\n      pop\n      pop\n      jump\t// out\n        /* \"#utility.yul\":3005:3215   */\n    tag_33:\n        /* \"#utility.yul\":3092:3096   */\n      0x00\n        /* \"#utility.yul\":3130:3132   */\n      0x20\n        /* \"#utility.yul\":3119:3128   */\n      dup3\n        /* \"#utility.yul\":3115:3133   */\n      add\n        /* \"#utility.yul\":3107:3133   */\n      swap1\n      pop\n        /* \"#utility.yul\":3143:3208   */\n      tag_115\n        /* \"#utility.yul\":3205:3206   */\n      0x00\n        /* \"#utility.yul\":3194:3203   */\n      dup4\n        /* \"#utility.yul\":3190:3207   */\n      add\n        /* \"#utility.yul\":3181:3187   */\n      dup5\n        /* \"#utility.yul\":3143:3208   */\n      tag_82\n      jump\t// in\n    tag_115:\n        /* \"#utility.yul\":3005:3215   */\n      swap3\n      swap2\n      pop\n      pop\n      jump\t// out\n        /* \"#utility.yul\":3221:3298   */\n    tag_83:\n        /* \"#utility.yul\":3258:3265   */\n      0x00\n        /* \"#utility.yul\":3287:3292   */\n      dup2\n        /* \"#utility.yul\":3276:3292   */\n      swap1\n      pop\n        /* \"#utility.yul\":3221:3298   */\n      swap2\n      swap1\n      pop\n      jump\t// out\n        /* \"#utility.yul\":3304:3422   */\n    tag_84:\n        /* \"#utility.yul\":3391:3415   */\n      tag_118\n        /* \"#utility.yul\":3409:3414   */\n      dup2\n        /* \"#utility.yul\":3391:3415   */\n      tag_83\n      jump\t// in\n    tag_118:\n        /* \"#utility.yul\":3386:3389   */\n      dup3\n        /* \"#utility.yul\":3379:3416   */\n      mstore\n        /* \"#utility.yul\":3304:3422   */\n      pop\n      pop\n      jump\t// out\n        /* \"#utility.yul\":3428:3650   */\n    tag_38:\n        /* \"#utility.yul\":3521:3525   */\n      0x00\n        /* \"#utility.yul\":3559:3561   */\n      0x20\n        /* \"#utility.yul\":3548:3557   */\n      dup3\n        /* \"#utility.yul\":3544:3562   */\n      add\n        /* \"#utility.yul\":3536:3562   */\n      swap1\n      pop\n        /* \"#utility.yul\":3572:3643   */\n      tag_120\n        /* \"#utility.yul\":3640:3641   */\n      0x00\n        /* \"#utility.yul\":3629:3638   */\n      dup4\n        /* \"#utility.yul\":3625:3642   */\n      add\n        /* \"#utility.yul\":3616:3622   */\n      dup5\n        /* \"#utility.yul\":3572:3643   */\n      tag_84\n      jump\t// in\n    tag_120:\n        /* \"#utility.yul\":3428:3650   */\n      swap3\n      swap2\n      pop\n      pop\n      jump\t// out\n        /* \"#utility.yul\":3656:3752   */\n    tag_85:\n        /* \"#utility.yul\":3693:3700   */\n      0x00\n        /* \"#utility.yul\":3722:3746   */\n      tag_122\n        /* \"#utility.yul\":3740:3745   */\n      dup3\n        /* \"#utility.yul\":3722:3746   */\n      tag_78\n      jump\t// in\n    tag_122:\n        /* \"#utility.yul\":3711:3746   */\n      swap1\n      pop\n        /* \"#utility.yul\":3656:3752   */\n      swap2\n      swap1\n      pop\n      jump\t// out\n        /* \"#utility.yul\":3758:3876   */\n    tag_86:\n        /* \"#utility.yul\":3845:3869   */\n      tag_124\n        /* \"#utility.yul\":3863:3868   */\n      dup2\n        /* \"#utility.yul\":3845:3869   */\n      tag_85\n      jump\t// in\n    tag_124:\n        /* \"#utility.yul\":3840:3843   */\n      dup3\n        /* \"#utility.yul\":3833:3870   */\n      mstore\n        /* \"#utility.yul\":3758:3876   */\n      pop\n      pop\n      jump\t// out\n        /* \"#utility.yul\":3882:4104   */\n    tag_43:\n        /* \"#utility.yul\":3975:3979   */\n      0x00\n        /* \"#utility.yul\":4013:4015   */\n      0x20\n        /* \"#utility.yul\":4002:4011   */\n      dup3\n        /* \"#utility.yul\":3998:4016   */\n      add\n        /* \"#utility.yul\":3990:4016   */\n      swap1\n      pop\n        /* \"#utility.yul\":4026:4097   */\n      tag_126\n        /* \"#utility.yul\":4094:4095   */\n      0x00\n        /* \"#utility.yul\":4083:4092   */\n      dup4\n        /* \"#utility.yul\":4079:4096   */\n      add\n        /* \"#utility.yul\":4070:4076   */\n      dup5\n        /* \"#utility.yul\":4026:4097   */\n      tag_86\n      jump\t// in\n    tag_126:\n        /* \"#utility.yul\":3882:4104   */\n      swap3\n      swap2\n      pop\n      pop\n      jump\t// out\n        /* \"#utility.yul\":4110:4442   */\n    tag_54:\n        /* \"#utility.yul\":4231:4235   */\n      0x00\n        /* \"#utility.yul\":4269:4271   */\n      0x40\n        /* \"#utility.yul\":4258:4267   */\n      dup3\n        /* \"#utility.yul\":4254:4272   */\n      add\n        /* \"#utility.yul\":4246:4272   */\n      swap1\n      pop\n        /* \"#utility.yul\":4282:4353   */\n      tag_128\n        /* \"#utility.yul\":4350:4351   */\n      0x00\n        /* \"#utility.yul\":4339:4348   */\n      dup4\n        /* \"#utility.yul\":4335:4352   */\n      add\n        /* \"#utility.yul\":4326:4332   */\n      dup6\n        /* \"#utility.yul\":4282:4353   */\n      tag_86\n      jump\t// in\n    tag_128:\n        /* \"#utility.yul\":4363:4435   */\n      tag_129\n        /* \"#utility.yul\":4431:4433   */\n      0x20\n        /* \"#utility.yul\":4420:4429   */\n      dup4\n        /* \"#utility.yul\":4416:4434   */\n      add\n        /* \"#utility.yul\":4407:4413   */\n      dup5\n        /* \"#utility.yul\":4363:4435   */\n      tag_84\n      jump\t// in\n    tag_129:\n        /* \"#utility.yul\":4110:4442   */\n      swap4\n      swap3\n      pop\n      pop\n      pop\n      jump\t// out\n        /* \"#utility.yul\":4448:4595   */\n    tag_87:\n        /* \"#utility.yul\":4549:4560   */\n      0x00\n        /* \"#utility.yul\":4586:4589   */\n      dup2\n        /* \"#utility.yul\":4571:4589   */\n      swap1\n      pop\n        /* \"#utility.yul\":4448:4595   */\n      swap3\n      swap2\n      pop\n      pop\n      jump\t// out\n        /* \"#utility.yul\":4601:4715   */\n    tag_88:\n      pop\n      jump\t// out\n        /* \"#utility.yul\":4721:5119   */\n    tag_89:\n        /* \"#utility.yul\":4880:4883   */\n      0x00\n        /* \"#utility.yul\":4901:4984   */\n      tag_133\n        /* \"#utility.yul\":4982:4983   */\n      0x00\n        /* \"#utility.yul\":4977:4980   */\n      dup4\n        /* \"#utility.yul\":4901:4984   */\n      tag_87\n      jump\t// in\n    tag_133:\n        /* \"#utility.yul\":4894:4984   */\n      swap2\n      pop\n        /* \"#utility.yul\":4993:5086   */\n      tag_134\n        /* \"#utility.yul\":5082:5085   */\n      dup3\n        /* \"#utility.yul\":4993:5086   */\n      tag_88\n      jump\t// in\n    tag_134:\n        /* \"#utility.yul\":5111:5112   */\n      0x00\n        /* \"#utility.yul\":5106:5109   */\n      dup3\n        /* \"#utility.yul\":5102:5113   */\n      add\n        /* \"#utility.yul\":5095:5113   */\n      swap1\n      pop\n        /* \"#utility.yul\":4721:5119   */\n      swap2\n      swap1\n      pop\n      jump\t// out\n        /* \"#utility.yul\":5125:5504   */\n    tag_68:\n        /* \"#utility.yul\":5309:5312   */\n      0x00\n        /* \"#utility.yul\":5331:5478   */\n      tag_136\n        /* \"#utility.yul\":5474:5477   */\n      dup3\n        /* \"#utility.yul\":5331:5478   */\n      tag_89\n      jump\t// in\n    tag_136:\n        /* \"#utility.yul\":5324:5478   */\n      swap2\n      pop\n        /* \"#utility.yul\":5495:5498   */\n      dup2\n        /* \"#utility.yul\":5488:5498   */\n      swap1\n      pop\n        /* \"#utility.yul\":5125:5504   */\n      swap2\n      swap1\n      pop\n      jump\t// out\n\n    auxdata: 0xa264697066735822122021d75e94c1f0669eee0ce1ed03cceced20d0b4e667282326146152ae2a7f09d564736f6c634300081a0033\n}\n",
				"bytecode": {
					"linkReferences": {},
					"object": "608060405234801561000f575f80fd5b50604051610b21380380610b218339818101604052810190610031919061011a565b805f806101000a81548173ffffffffffffffffffffffffffffffffffffffff021916908373ffffffffffffffffffffffffffffffffffffffff160217905550814261007c9190610185565b60018190555050506101b8565b5f80fd5b5f819050919050565b61009f8161008d565b81146100a9575f80fd5b50565b5f815190506100ba81610096565b92915050565b5f73ffffffffffffffffffffffffffffffffffffffff82169050919050565b5f6100e9826100c0565b9050919050565b6100f9816100df565b8114610103575f80fd5b50565b5f81519050610114816100f0565b92915050565b5f80604083850312156101305761012f610089565b5b5f61013d858286016100ac565b925050602061014e85828601610106565b9150509250929050565b7f4e487b71000000000000000000000000000000000000000000000000000000005f52601160045260245ffd5b5f61018f8261008d565b915061019a8361008d565b92508282019050808211156101b2576101b1610158565b5b92915050565b61095c806101c55f395ff3fe608060405260043610610073575f3560e01c80633ccfd60b1161004d5780633ccfd60b146101385780634b449cba1461016257806391f901571461018c578063d57bde79146101b6576100b3565b80631998aeef146100ee5780632a24f46c146100f857806338af3eed1461010e576100b3565b366100b3576040517f08c379a00000000000000000000000000000000000000000000000000000000081526004016100aa90610743565b60405180910390fd5b6040517f08c379a00000000000000000000000000000000000000000000000000000000081526004016100e5906107ab565b60405180910390fd5b6100f66101e0565b005b348015610103575f80fd5b5061010c6103e6565b005b348015610119575f80fd5b50610122610545565b60405161012f9190610808565b60405180910390f35b348015610143575f80fd5b5061014c610568565b604051610159919061083b565b60405180910390f35b34801561016d575f80fd5b506101766106b8565b604051610183919061086c565b60405180910390f35b348015610197575f80fd5b506101a06106be565b6040516101ad91906108a5565b60405180910390f35b3480156101c1575f80fd5b506101ca6106e3565b6040516101d7919061086c565b60405180910390f35b60015442111561021c576040517fd02e774d00000000000000000000000000000000000000000000000000000000815260040160405180910390fd5b6003543411610264576003546040517f4e12c1bb00000000000000000000000000000000000000000000000000000000815260040161025b919061086c565b60405180910390fd5b5f60035414610363575f60035490505f60025f9054906101000a900473ffffffffffffffffffffffffffffffffffffffff1690503360025f6101000a81548173ffffffffffffffffffffffffffffffffffffffff021916908373ffffffffffffffffffffffffffffffffffffffff160217905550346003819055507ff4757a49b326036464bec6fe419a4ae38c8a02ce3e68bf0809674f6aab8ad30033346040516103109291906108be565b60405180910390a18073ffffffffffffffffffffffffffffffffffffffff166108fc8390811502906040515f60405180830381858888f1935050505015801561035b573d5f803e3d5ffd5b5050506103e4565b3360025f6101000a81548173ffffffffffffffffffffffffffffffffffffffff021916908373ffffffffffffffffffffffffffffffffffffffff160217905550346003819055507ff4757a49b326036464bec6fe419a4ae38c8a02ce3e68bf0809674f6aab8ad30033346040516103db9291906108be565b60405180910390a15b565b600154421015610422576040517f44cee29000000000000000000000000000000000000000000000000000000000815260040160405180910390fd5b60055f9054906101000a900460ff1615610468576040517f61cfdcf800000000000000000000000000000000000000000000000000000000815260040160405180910390fd5b600160055f6101000a81548160ff0219169083151502179055507fdaec4582d5d9595688c8c98545fdd1c696d41c6aeaeb636737e84ed2f5c00eda60025f9054906101000a900473ffffffffffffffffffffffffffffffffffffffff166003546040516104d69291906108be565b60405180910390a15f8054906101000a900473ffffffffffffffffffffffffffffffffffffffff1673ffffffffffffffffffffffffffffffffffffffff166108fc60035490811502906040515f60405180830381858888f19350505050158015610542573d5f803e3d5ffd5b50565b5f8054906101000a900473ffffffffffffffffffffffffffffffffffffffff1681565b5f8060045f3373ffffffffffffffffffffffffffffffffffffffff1673ffffffffffffffffffffffffffffffffffffffff1681526020019081526020015f205490505f8111156106af575f60045f3373ffffffffffffffffffffffffffffffffffffffff1673ffffffffffffffffffffffffffffffffffffffff1681526020019081526020015f20819055505f3373ffffffffffffffffffffffffffffffffffffffff168260405161061990610912565b5f6040518083038185875af1925050503d805f8114610653576040519150601f19603f3d011682016040523d82523d5f602084013e610658565b606091505b50509050806106ad578160045f3373ffffffffffffffffffffffffffffffffffffffff1673ffffffffffffffffffffffffffffffffffffffff1681526020019081526020015f20819055505f925050506106b5565b505b60019150505b90565b60015481565b60025f9054906101000a900473ffffffffffffffffffffffffffffffffffffffff1681565b60035481565b5f82825260208201905092915050565b7f44697265637420455448207472616e73666572206e6f7420616c6c6f7765642e5f82015250565b5f61072d6020836106e9565b9150610738826106f9565b602082019050919050565b5f6020820190508181035f83015261075a81610721565b9050919050565b7f46756e6374696f6e20646f6573206e6f742065786973742e00000000000000005f82015250565b5f6107956018836106e9565b91506107a082610761565b602082019050919050565b5f6020820190508181035f8301526107c281610789565b9050919050565b5f73ffffffffffffffffffffffffffffffffffffffff82169050919050565b5f6107f2826107c9565b9050919050565b610802816107e8565b82525050565b5f60208201905061081b5f8301846107f9565b92915050565b5f8115159050919050565b61083581610821565b82525050565b5f60208201905061084e5f83018461082c565b92915050565b5f819050919050565b61086681610854565b82525050565b5f60208201905061087f5f83018461085d565b92915050565b5f61088f826107c9565b9050919050565b61089f81610885565b82525050565b5f6020820190506108b85f830184610896565b92915050565b5f6040820190506108d15f830185610896565b6108de602083018461085d565b9392505050565b5f81905092915050565b50565b5f6108fd5f836108e5565b9150610908826108ef565b5f82019050919050565b5f61091c826108f2565b915081905091905056fea264697066735822122021d75e94c1f0669eee0ce1ed03cceced20d0b4e667282326146152ae2a7f09d564736f6c634300081a0033",
					"opcodes": "PUSH1 0x80 PUSH1 0x40 MSTORE CALLVALUE DUP1 ISZERO PUSH2 0xF JUMPI PUSH0 DUP1 REVERT JUMPDEST POP PUSH1 0x40 MLOAD PUSH2 0xB21 CODESIZE SUB DUP1 PUSH2 0xB21 DUP4 CODECOPY DUP2 DUP2 ADD PUSH1 0x40 MSTORE DUP2 ADD SWAP1 PUSH2 0x31 SWAP2 SWAP1 PUSH2 0x11A JUMP JUMPDEST DUP1 PUSH0 DUP1 PUSH2 0x100 EXP DUP2 SLOAD DUP2 PUSH20 0xFFFFFFFFFFFFFFFFFFFFFFFFFFFFFFFFFFFFFFFF MUL NOT AND SWAP1 DUP4 PUSH20 0xFFFFFFFFFFFFFFFFFFFFFFFFFFFFFFFFFFFFFFFF AND MUL OR SWAP1 SSTORE POP DUP2 TIMESTAMP PUSH2 0x7C SWAP2 SWAP1 PUSH2 0x185 JUMP JUMPDEST PUSH1 0x1 DUP2 SWAP1 SSTORE POP POP POP PUSH2 0x1B8 JUMP JUMPDEST PUSH0 DUP1 REVERT JUMPDEST PUSH0 DUP2 SWAP1 POP SWAP2 SWAP1 POP JUMP JUMPDEST PUSH2 0x9F DUP2 PUSH2 0x8D JUMP JUMPDEST DUP2 EQ PUSH2 0xA9 JUMPI PUSH0 DUP1 REVERT JUMPDEST POP JUMP JUMPDEST PUSH0 DUP2 MLOAD SWAP1 POP PUSH2 0xBA DUP2 PUSH2 0x96 JUMP JUMPDEST SWAP3 SWAP2 POP POP JUMP JUMPDEST PUSH0 PUSH20 0xFFFFFFFFFFFFFFFFFFFFFFFFFFFFFFFFFFFFFFFF DUP3 AND SWAP1 POP SWAP2 SWAP1 POP JUMP JUMPDEST PUSH0 PUSH2 0xE9 DUP3 PUSH2 0xC0 JUMP JUMPDEST SWAP1 POP SWAP2 SWAP1 POP JUMP JUMPDEST PUSH2 0xF9 DUP2 PUSH2 0xDF JUMP JUMPDEST DUP2 EQ PUSH2 0x103 JUMPI PUSH0 DUP1 REVERT JUMPDEST POP JUMP JUMPDEST PUSH0 DUP2 MLOAD SWAP1 POP PUSH2 0x114 DUP2 PUSH2 0xF0 JUMP JUMPDEST SWAP3 SWAP2 POP POP JUMP JUMPDEST PUSH0 DUP1 PUSH1 0x40 DUP4 DUP6 SUB SLT ISZERO PUSH2 0x130 JUMPI PUSH2 0x12F PUSH2 0x89 JUMP JUMPDEST JUMPDEST PUSH0 PUSH2 0x13D DUP6 DUP3 DUP7 ADD PUSH2 0xAC JUMP JUMPDEST SWAP3 POP POP PUSH1 0x20 PUSH2 0x14E DUP6 DUP3 DUP7 ADD PUSH2 0x106 JUMP JUMPDEST SWAP2 POP POP SWAP3 POP SWAP3 SWAP1 POP JUMP JUMPDEST PUSH32 0x4E487B7100000000000000000000000000000000000000000000000000000000 PUSH0 MSTORE PUSH1 0x11 PUSH1 0x4 MSTORE PUSH1 0x24 PUSH0 REVERT JUMPDEST PUSH0 PUSH2 0x18F DUP3 PUSH2 0x8D JUMP JUMPDEST SWAP2 POP PUSH2 0x19A DUP4 PUSH2 0x8D JUMP JUMPDEST SWAP3 POP DUP3 DUP3 ADD SWAP1 POP DUP1 DUP3 GT ISZERO PUSH2 0x1B2 JUMPI PUSH2 0x1B1 PUSH2 0x158 JUMP JUMPDEST JUMPDEST SWAP3 SWAP2 POP POP JUMP JUMPDEST PUSH2 0x95C DUP1 PUSH2 0x1C5 PUSH0 CODECOPY PUSH0 RETURN INVALID PUSH1 0x80 PUSH1 0x40 MSTORE PUSH1 0x4 CALLDATASIZE LT PUSH2 0x73 JUMPI PUSH0 CALLDATALOAD PUSH1 0xE0 SHR DUP1 PUSH4 0x3CCFD60B GT PUSH2 0x4D JUMPI DUP1 PUSH4 0x3CCFD60B EQ PUSH2 0x138 JUMPI DUP1 PUSH4 0x4B449CBA EQ PUSH2 0x162 JUMPI DUP1 PUSH4 0x91F90157 EQ PUSH2 0x18C JUMPI DUP1 PUSH4 0xD57BDE79 EQ PUSH2 0x1B6 JUMPI PUSH2 0xB3 JUMP JUMPDEST DUP1 PUSH4 0x1998AEEF EQ PUSH2 0xEE JUMPI DUP1 PUSH4 0x2A24F46C EQ PUSH2 0xF8 JUMPI DUP1 PUSH4 0x38AF3EED EQ PUSH2 0x10E JUMPI PUSH2 0xB3 JUMP JUMPDEST CALLDATASIZE PUSH2 0xB3 JUMPI PUSH1 0x40 MLOAD PUSH32 0x8C379A000000000000000000000000000000000000000000000000000000000 DUP2 MSTORE PUSH1 0x4 ADD PUSH2 0xAA SWAP1 PUSH2 0x743 JUMP JUMPDEST PUSH1 0x40 MLOAD DUP1 SWAP2 SUB SWAP1 REVERT JUMPDEST PUSH1 0x40 MLOAD PUSH32 0x8C379A000000000000000000000000000000000000000000000000000000000 DUP2 MSTORE PUSH1 0x4 ADD PUSH2 0xE5 SWAP1 PUSH2 0x7AB JUMP JUMPDEST PUSH1 0x40 MLOAD DUP1 SWAP2 SUB SWAP1 REVERT JUMPDEST PUSH2 0xF6 PUSH2 0x1E0 JUMP JUMPDEST STOP JUMPDEST CALLVALUE DUP1 ISZERO PUSH2 0x103 JUMPI PUSH0 DUP1 REVERT JUMPDEST POP PUSH2 0x10C PUSH2 0x3E6 JUMP JUMPDEST STOP JUMPDEST CALLVALUE DUP1 ISZERO PUSH2 0x119 JUMPI PUSH0 DUP1 REVERT JUMPDEST POP PUSH2 0x122 PUSH2 0x545 JUMP JUMPDEST PUSH1 0x40 MLOAD PUSH2 0x12F SWAP2 SWAP1 PUSH2 0x808 JUMP JUMPDEST PUSH1 0x40 MLOAD DUP1 SWAP2 SUB SWAP1 RETURN JUMPDEST CALLVALUE DUP1 ISZERO PUSH2 0x143 JUMPI PUSH0 DUP1 REVERT JUMPDEST POP PUSH2 0x14C PUSH2 0x568 JUMP JUMPDEST PUSH1 0x40 MLOAD PUSH2 0x159 SWAP2 SWAP1 PUSH2 0x83B JUMP JUMPDEST PUSH1 0x40 MLOAD DUP1 SWAP2 SUB SWAP1 RETURN JUMPDEST CALLVALUE DUP1 ISZERO PUSH2 0x16D JUMPI PUSH0 DUP1 REVERT JUMPDEST POP PUSH2 0x176 PUSH2 0x6B8 JUMP JUMPDEST PUSH1 0x40 MLOAD PUSH2 0x183 SWAP2 SWAP1 PUSH2 0x86C JUMP JUMPDEST PUSH1 0x40 MLOAD DUP1 SWAP2 SUB SWAP1 RETURN JUMPDEST CALLVALUE DUP1 ISZERO PUSH2 0x197 JUMPI PUSH0 DUP1 REVERT JUMPDEST POP PUSH2 0x1A0 PUSH2 0x6BE JUMP JUMPDEST PUSH1 0x40 MLOAD PUSH2 0x1AD SWAP2 SWAP1 PUSH2 0x8A5 JUMP JUMPDEST PUSH1 0x40 MLOAD DUP1 SWAP2 SUB SWAP1 RETURN JUMPDEST CALLVALUE DUP1 ISZERO PUSH2 0x1C1 JUMPI PUSH0 DUP1 REVERT JUMPDEST POP PUSH2 0x1CA PUSH2 0x6E3 JUMP JUMPDEST PUSH1 0x40 MLOAD PUSH2 0x1D7 SWAP2 SWAP1 PUSH2 0x86C JUMP JUMPDEST PUSH1 0x40 MLOAD DUP1 SWAP2 SUB SWAP1 RETURN JUMPDEST PUSH1 0x1 SLOAD TIMESTAMP GT ISZERO PUSH2 0x21C JUMPI PUSH1 0x40 MLOAD PUSH32 0xD02E774D00000000000000000000000000000000000000000000000000000000 DUP2 MSTORE PUSH1 0x4 ADD PUSH1 0x40 MLOAD DUP1 SWAP2 SUB SWAP1 REVERT JUMPDEST PUSH1 0x3 SLOAD CALLVALUE GT PUSH2 0x264 JUMPI PUSH1 0x3 SLOAD PUSH1 0x40 MLOAD PUSH32 0x4E12C1BB00000000000000000000000000000000000000000000000000000000 DUP2 MSTORE PUSH1 0x4 ADD PUSH2 0x25B SWAP2 SWAP1 PUSH2 0x86C JUMP JUMPDEST PUSH1 0x40 MLOAD DUP1 SWAP2 SUB SWAP1 REVERT JUMPDEST PUSH0 PUSH1 0x3 SLOAD EQ PUSH2 0x363 JUMPI PUSH0 PUSH1 0x3 SLOAD SWAP1 POP PUSH0 PUSH1 0x2 PUSH0 SWAP1 SLOAD SWAP1 PUSH2 0x100 EXP SWAP1 DIV PUSH20 0xFFFFFFFFFFFFFFFFFFFFFFFFFFFFFFFFFFFFFFFF AND SWAP1 POP CALLER PUSH1 0x2 PUSH0 PUSH2 0x100 EXP DUP2 SLOAD DUP2 PUSH20 0xFFFFFFFFFFFFFFFFFFFFFFFFFFFFFFFFFFFFFFFF MUL NOT AND SWAP1 DUP4 PUSH20 0xFFFFFFFFFFFFFFFFFFFFFFFFFFFFFFFFFFFFFFFF AND MUL OR SWAP1 SSTORE POP CALLVALUE PUSH1 0x3 DUP2 SWAP1 SSTORE POP PUSH32 0xF4757A49B326036464BEC6FE419A4AE38C8A02CE3E68BF0809674F6AAB8AD300 CALLER CALLVALUE PUSH1 0x40 MLOAD PUSH2 0x310 SWAP3 SWAP2 SWAP1 PUSH2 0x8BE JUMP JUMPDEST PUSH1 0x40 MLOAD DUP1 SWAP2 SUB SWAP1 LOG1 DUP1 PUSH20 0xFFFFFFFFFFFFFFFFFFFFFFFFFFFFFFFFFFFFFFFF AND PUSH2 0x8FC DUP4 SWAP1 DUP2 ISZERO MUL SWAP1 PUSH1 0x40 MLOAD PUSH0 PUSH1 0x40 MLOAD DUP1 DUP4 SUB DUP2 DUP6 DUP9 DUP9 CALL SWAP4 POP POP POP POP ISZERO DUP1 ISZERO PUSH2 0x35B JUMPI RETURNDATASIZE PUSH0 DUP1 RETURNDATACOPY RETURNDATASIZE PUSH0 REVERT JUMPDEST POP POP POP PUSH2 0x3E4 JUMP JUMPDEST CALLER PUSH1 0x2 PUSH0 PUSH2 0x100 EXP DUP2 SLOAD DUP2 PUSH20 0xFFFFFFFFFFFFFFFFFFFFFFFFFFFFFFFFFFFFFFFF MUL NOT AND SWAP1 DUP4 PUSH20 0xFFFFFFFFFFFFFFFFFFFFFFFFFFFFFFFFFFFFFFFF AND MUL OR SWAP1 SSTORE POP CALLVALUE PUSH1 0x3 DUP2 SWAP1 SSTORE POP PUSH32 0xF4757A49B326036464BEC6FE419A4AE38C8A02CE3E68BF0809674F6AAB8AD300 CALLER CALLVALUE PUSH1 0x40 MLOAD PUSH2 0x3DB SWAP3 SWAP2 SWAP1 PUSH2 0x8BE JUMP JUMPDEST PUSH1 0x40 MLOAD DUP1 SWAP2 SUB SWAP1 LOG1 JUMPDEST JUMP JUMPDEST PUSH1 0x1 SLOAD TIMESTAMP LT ISZERO PUSH2 0x422 JUMPI PUSH1 0x40 MLOAD PUSH32 0x44CEE29000000000000000000000000000000000000000000000000000000000 DUP2 MSTORE PUSH1 0x4 ADD PUSH1 0x40 MLOAD DUP1 SWAP2 SUB SWAP1 REVERT JUMPDEST PUSH1 0x5 PUSH0 SWAP1 SLOAD SWAP1 PUSH2 0x100 EXP SWAP1 DIV PUSH1 0xFF AND ISZERO PUSH2 0x468 JUMPI PUSH1 0x40 MLOAD PUSH32 0x61CFDCF800000000000000000000000000000000000000000000000000000000 DUP2 MSTORE PUSH1 0x4 ADD PUSH1 0x40 MLOAD DUP1 SWAP2 SUB SWAP1 REVERT JUMPDEST PUSH1 0x1 PUSH1 0x5 PUSH0 PUSH2 0x100 EXP DUP2 SLOAD DUP2 PUSH1 0xFF MUL NOT AND SWAP1 DUP4 ISZERO ISZERO MUL OR SWAP1 SSTORE POP PUSH32 0xDAEC4582D5D9595688C8C98545FDD1C696D41C6AEAEB636737E84ED2F5C00EDA PUSH1 0x2 PUSH0 SWAP1 SLOAD SWAP1 PUSH2 0x100 EXP SWAP1 DIV PUSH20 0xFFFFFFFFFFFFFFFFFFFFFFFFFFFFFFFFFFFFFFFF AND PUSH1 0x3 SLOAD PUSH1 0x40 MLOAD PUSH2 0x4D6 SWAP3 SWAP2 SWAP1 PUSH2 0x8BE JUMP JUMPDEST PUSH1 0x40 MLOAD DUP1 SWAP2 SUB SWAP1 LOG1 PUSH0 DUP1 SLOAD SWAP1 PUSH2 0x100 EXP SWAP1 DIV PUSH20 0xFFFFFFFFFFFFFFFFFFFFFFFFFFFFFFFFFFFFFFFF AND PUSH20 0xFFFFFFFFFFFFFFFFFFFFFFFFFFFFFFFFFFFFFFFF AND PUSH2 0x8FC PUSH1 0x3 SLOAD SWAP1 DUP2 ISZERO MUL SWAP1 PUSH1 0x40 MLOAD PUSH0 PUSH1 0x40 MLOAD DUP1 DUP4 SUB DUP2 DUP6 DUP9 DUP9 CALL SWAP4 POP POP POP POP ISZERO DUP1 ISZERO PUSH2 0x542 JUMPI RETURNDATASIZE PUSH0 DUP1 RETURNDATACOPY RETURNDATASIZE PUSH0 REVERT JUMPDEST POP JUMP JUMPDEST PUSH0 DUP1 SLOAD SWAP1 PUSH2 0x100 EXP SWAP1 DIV PUSH20 0xFFFFFFFFFFFFFFFFFFFFFFFFFFFFFFFFFFFFFFFF AND DUP2 JUMP JUMPDEST PUSH0 DUP1 PUSH1 0x4 PUSH0 CALLER PUSH20 0xFFFFFFFFFFFFFFFFFFFFFFFFFFFFFFFFFFFFFFFF AND PUSH20 0xFFFFFFFFFFFFFFFFFFFFFFFFFFFFFFFFFFFFFFFF AND DUP2 MSTORE PUSH1 0x20 ADD SWAP1 DUP2 MSTORE PUSH1 0x20 ADD PUSH0 KECCAK256 SLOAD SWAP1 POP PUSH0 DUP2 GT ISZERO PUSH2 0x6AF JUMPI PUSH0 PUSH1 0x4 PUSH0 CALLER PUSH20 0xFFFFFFFFFFFFFFFFFFFFFFFFFFFFFFFFFFFFFFFF AND PUSH20 0xFFFFFFFFFFFFFFFFFFFFFFFFFFFFFFFFFFFFFFFF AND DUP2 MSTORE PUSH1 0x20 ADD SWAP1 DUP2 MSTORE PUSH1 0x20 ADD PUSH0 KECCAK256 DUP2 SWAP1 SSTORE POP PUSH0 CALLER PUSH20 0xFFFFFFFFFFFFFFFFFFFFFFFFFFFFFFFFFFFFFFFF AND DUP3 PUSH1 0x40 MLOAD PUSH2 0x619 SWAP1 PUSH2 0x912 JUMP JUMPDEST PUSH0 PUSH1 0x40 MLOAD DUP1 DUP4 SUB DUP2 DUP6 DUP8 GAS CALL SWAP3 POP POP POP RETURNDATASIZE DUP1 PUSH0 DUP2 EQ PUSH2 0x653 JUMPI PUSH1 0x40 MLOAD SWAP2 POP PUSH1 0x1F NOT PUSH1 0x3F RETURNDATASIZE ADD AND DUP3 ADD PUSH1 0x40 MSTORE RETURNDATASIZE DUP3 MSTORE RETURNDATASIZE PUSH0 PUSH1 0x20 DUP5 ADD RETURNDATACOPY PUSH2 0x658 JUMP JUMPDEST PUSH1 0x60 SWAP2 POP JUMPDEST POP POP SWAP1 POP DUP1 PUSH2 0x6AD JUMPI DUP2 PUSH1 0x4 PUSH0 CALLER PUSH20 0xFFFFFFFFFFFFFFFFFFFFFFFFFFFFFFFFFFFFFFFF AND PUSH20 0xFFFFFFFFFFFFFFFFFFFFFFFFFFFFFFFFFFFFFFFF AND DUP2 MSTORE PUSH1 0x20 ADD SWAP1 DUP2 MSTORE PUSH1 0x20 ADD PUSH0 KECCAK256 DUP2 SWAP1 SSTORE POP PUSH0 SWAP3 POP POP POP PUSH2 0x6B5 JUMP JUMPDEST POP JUMPDEST PUSH1 0x1 SWAP2 POP POP JUMPDEST SWAP1 JUMP JUMPDEST PUSH1 0x1 SLOAD DUP2 JUMP JUMPDEST PUSH1 0x2 PUSH0 SWAP1 SLOAD SWAP1 PUSH2 0x100 EXP SWAP1 DIV PUSH20 0xFFFFFFFFFFFFFFFFFFFFFFFFFFFFFFFFFFFFFFFF AND DUP2 JUMP JUMPDEST PUSH1 0x3 SLOAD DUP2 JUMP JUMPDEST PUSH0 DUP3 DUP3 MSTORE PUSH1 0x20 DUP3 ADD SWAP1 POP SWAP3 SWAP2 POP POP JUMP JUMPDEST PUSH32 0x44697265637420455448207472616E73666572206E6F7420616C6C6F7765642E PUSH0 DUP3 ADD MSTORE POP JUMP JUMPDEST PUSH0 PUSH2 0x72D PUSH1 0x20 DUP4 PUSH2 0x6E9 JUMP JUMPDEST SWAP2 POP PUSH2 0x738 DUP3 PUSH2 0x6F9 JUMP JUMPDEST PUSH1 0x20 DUP3 ADD SWAP1 POP SWAP2 SWAP1 POP JUMP JUMPDEST PUSH0 PUSH1 0x20 DUP3 ADD SWAP1 POP DUP2 DUP2 SUB PUSH0 DUP4 ADD MSTORE PUSH2 0x75A DUP2 PUSH2 0x721 JUMP JUMPDEST SWAP1 POP SWAP2 SWAP1 POP JUMP JUMPDEST PUSH32 0x46756E6374696F6E20646F6573206E6F742065786973742E0000000000000000 PUSH0 DUP3 ADD MSTORE POP JUMP JUMPDEST PUSH0 PUSH2 0x795 PUSH1 0x18 DUP4 PUSH2 0x6E9 JUMP JUMPDEST SWAP2 POP PUSH2 0x7A0 DUP3 PUSH2 0x761 JUMP JUMPDEST PUSH1 0x20 DUP3 ADD SWAP1 POP SWAP2 SWAP1 POP JUMP JUMPDEST PUSH0 PUSH1 0x20 DUP3 ADD SWAP1 POP DUP2 DUP2 SUB PUSH0 DUP4 ADD MSTORE PUSH2 0x7C2 DUP2 PUSH2 0x789 JUMP JUMPDEST SWAP1 POP SWAP2 SWAP1 POP JUMP JUMPDEST PUSH0 PUSH20 0xFFFFFFFFFFFFFFFFFFFFFFFFFFFFFFFFFFFFFFFF DUP3 AND SWAP1 POP SWAP2 SWAP1 POP JUMP JUMPDEST PUSH0 PUSH2 0x7F2 DUP3 PUSH2 0x7C9 JUMP JUMPDEST SWAP1 POP SWAP2 SWAP1 POP JUMP JUMPDEST PUSH2 0x802 DUP2 PUSH2 0x7E8 JUMP JUMPDEST DUP3 MSTORE POP POP JUMP JUMPDEST PUSH0 PUSH1 0x20 DUP3 ADD SWAP1 POP PUSH2 0x81B PUSH0 DUP4 ADD DUP5 PUSH2 0x7F9 JUMP JUMPDEST SWAP3 SWAP2 POP POP JUMP JUMPDEST PUSH0 DUP2 ISZERO ISZERO SWAP1 POP SWAP2 SWAP1 POP JUMP JUMPDEST PUSH2 0x835 DUP2 PUSH2 0x821 JUMP JUMPDEST DUP3 MSTORE POP POP JUMP JUMPDEST PUSH0 PUSH1 0x20 DUP3 ADD SWAP1 POP PUSH2 0x84E PUSH0 DUP4 ADD DUP5 PUSH2 0x82C JUMP JUMPDEST SWAP3 SWAP2 POP POP JUMP JUMPDEST PUSH0 DUP2 SWAP1 POP SWAP2 SWAP1 POP JUMP JUMPDEST PUSH2 0x866 DUP2 PUSH2 0x854 JUMP JUMPDEST DUP3 MSTORE POP POP JUMP JUMPDEST PUSH0 PUSH1 0x20 DUP3 ADD SWAP1 POP PUSH2 0x87F PUSH0 DUP4 ADD DUP5 PUSH2 0x85D JUMP JUMPDEST SWAP3 SWAP2 POP POP JUMP JUMPDEST PUSH0 PUSH2 0x88F DUP3 PUSH2 0x7C9 JUMP JUMPDEST SWAP1 POP SWAP2 SWAP1 POP JUMP JUMPDEST PUSH2 0x89F DUP2 PUSH2 0x885 JUMP JUMPDEST DUP3 MSTORE POP POP JUMP JUMPDEST PUSH0 PUSH1 0x20 DUP3 ADD SWAP1 POP PUSH2 0x8B8 PUSH0 DUP4 ADD DUP5 PUSH2 0x896 JUMP JUMPDEST SWAP3 SWAP2 POP POP JUMP JUMPDEST PUSH0 PUSH1 0x40 DUP3 ADD SWAP1 POP PUSH2 0x8D1 PUSH0 DUP4 ADD DUP6 PUSH2 0x896 JUMP JUMPDEST PUSH2 0x8DE PUSH1 0x20 DUP4 ADD DUP5 PUSH2 0x85D JUMP JUMPDEST SWAP4 SWAP3 POP POP POP JUMP JUMPDEST PUSH0 DUP2 SWAP1 POP SWAP3 SWAP2 POP POP JUMP JUMPDEST POP JUMP JUMPDEST PUSH0 PUSH2 0x8FD PUSH0 DUP4 PUSH2 0x8E5 JUMP JUMPDEST SWAP2 POP PUSH2 0x908 DUP3 PUSH2 0x8EF JUMP JUMPDEST PUSH0 DUP3 ADD SWAP1 POP SWAP2 SWAP1 POP JUMP JUMPDEST PUSH0 PUSH2 0x91C DUP3 PUSH2 0x8F2 JUMP JUMPDEST SWAP2 POP DUP2 SWAP1 POP SWAP2 SWAP1 POP JUMP INVALID LOG2 PUSH5 0x6970667358 0x22 SLT KECCAK256 0x21 0xD7 MCOPY SWAP5 0xC1 CREATE PUSH7 0x9EEE0CE1ED03CC 0xEC 0xED KECCAK256 0xD0 0xB4 0xE6 PUSH8 0x282326146152AE2A PUSH32 0x9D564736F6C634300081A003300000000000000000000000000000000000000 "
				},
				"gasEstimates": {
					"creation": {
						"codeDepositCost": "479200",
						"executionCost": "infinite",
						"totalCost": "infinite"
					},
					"external": {
						"": "445",
						"auctionEnd()": "infinite",
						"auctionEndTime()": "2447",
						"beneficiary()": "2550",
						"bid()": "infinite",
						"highestBid()": "2491",
						"highestBidder()": "2552",
						"withdraw()": "infinite"
					}
				},
				"methodIdentifiers": {
					"auctionEnd()": "2a24f46c",
					"auctionEndTime()": "4b449cba",
					"beneficiary()": "38af3eed",
					"bid()": "1998aeef",
					"highestBid()": "d57bde79",
					"highestBidder()": "91f90157",
					"withdraw()": "3ccfd60b"
				}
			},
			"storageLayout": {
				"storage": [
					{
						"astId": 4,
						"contract": "contracts/BlindAuction.sol:SimpleAuction",
						"label": "beneficiary",
						"offset": 0,
						"slot": "0",
						"type": "t_address_payable"
					},
					{
						"astId": 6,
						"contract": "contracts/BlindAuction.sol:SimpleAuction",
						"label": "auctionEndTime",
						"offset": 0,
						"slot": "1",
						"type": "t_uint256"
					},
					{
						"astId": 8,
						"contract": "contracts/BlindAuction.sol:SimpleAuction",
						"label": "highestBidder",
						"offset": 0,
						"slot": "2",
						"type": "t_address"
					},
					{
						"astId": 10,
						"contract": "contracts/BlindAuction.sol:SimpleAuction",
						"label": "highestBid",
						"offset": 0,
						"slot": "3",
						"type": "t_uint256"
					},
					{
						"astId": 14,
						"contract": "contracts/BlindAuction.sol:SimpleAuction",
						"label": "pendingReturns",
						"offset": 0,
						"slot": "4",
						"type": "t_mapping(t_address,t_uint256)"
					},
					{
						"astId": 16,
						"contract": "contracts/BlindAuction.sol:SimpleAuction",
						"label": "ended",
						"offset": 0,
						"slot": "5",
						"type": "t_bool"
					}
				],
				"types": {
					"t_address": {
						"encoding": "inplace",
						"label": "address",
						"numberOfBytes": "20"
					},
					"t_address_payable": {
						"encoding": "inplace",
						"label": "address payable",
						"numberOfBytes": "20"
					},
					"t_bool": {
						"encoding": "inplace",
						"label": "bool",
						"numberOfBytes": "1"
					},
					"t_mapping(t_address,t_uint256)": {
						"encoding": "mapping",
						"key": "t_address",
						"label": "mapping(address => uint256)",
						"numberOfBytes": "32",
						"value": "t_uint256"
					},
					"t_uint256": {
						"encoding": "inplace",
						"label": "uint256",
						"numberOfBytes": "32"
					}
				}
			},
			"userdoc": {
				"kind": "user",
				"methods": {},
				"version": 1
			}
		}
	}
}