{
	"contracts/SimpleAuction.sol": {
		"SimpleAuction": {
			"abi": [
				{
					"inputs": [
						{
							"internalType": "uint256",
							"name": "biddingTime",
							"type": "uint256"
						},
						{
							"internalType": "address payable",
							"name": "beneficiaryAddress",
							"type": "address"
						}
					],
					"stateMutability": "nonpayable",
					"type": "constructor"
				},
				{
					"inputs": [],
					"name": "AuctionAlreadyEnded",
					"type": "error"
				},
				{
					"inputs": [],
					"name": "AuctionEndAlreadyCalled",
					"type": "error"
				},
				{
					"inputs": [],
					"name": "AuctionNotYetEnded",
					"type": "error"
				},
				{
					"inputs": [
						{
							"internalType": "uint256",
							"name": "highestBid",
							"type": "uint256"
						}
					],
					"name": "BidNotHighEnough",
					"type": "error"
				},
				{
					"anonymous": false,
					"inputs": [
						{
							"indexed": false,
							"internalType": "address",
							"name": "winner",
							"type": "address"
						},
						{
							"indexed": false,
							"internalType": "uint256",
							"name": "amount",
							"type": "uint256"
						}
					],
					"name": "AuctionEnded",
					"type": "event"
				},
				{
					"anonymous": false,
					"inputs": [
						{
							"indexed": false,
							"internalType": "address",
							"name": "bidder",
							"type": "address"
						},
						{
							"indexed": false,
							"internalType": "uint256",
							"name": "amount",
							"type": "uint256"
						}
					],
					"name": "HighestBidIncreased",
					"type": "event"
				},
				{
					"stateMutability": "payable",
					"type": "fallback"
				},
				{
					"inputs": [],
					"name": "auctionEnd",
					"outputs": [],
					"stateMutability": "nonpayable",
					"type": "function"
				},
				{
					"inputs": [],
					"name": "auctionEndTime",
					"outputs": [
						{
							"internalType": "uint256",
							"name": "",
							"type": "uint256"
						}
					],
					"stateMutability": "view",
					"type": "function"
				},
				{
					"inputs": [],
					"name": "beneficiary",
					"outputs": [
						{
							"internalType": "address payable",
							"name": "",
							"type": "address"
						}
					],
					"stateMutability": "view",
					"type": "function"
				},
				{
					"inputs": [],
					"name": "bid",
					"outputs": [],
					"stateMutability": "payable",
					"type": "function"
				},
				{
					"inputs": [],
					"name": "highestBid",
					"outputs": [
						{
							"internalType": "uint256",
							"name": "",
							"type": "uint256"
						}
					],
					"stateMutability": "view",
					"type": "function"
				},
				{
					"inputs": [],
					"name": "highestBidder",
					"outputs": [
						{
							"internalType": "address",
							"name": "",
							"type": "address"
						}
					],
					"stateMutability": "view",
					"type": "function"
				},
				{
					"inputs": [],
					"name": "withdraw",
					"outputs": [
						{
							"internalType": "bool",
							"name": "",
							"type": "bool"
						}
					],
					"stateMutability": "nonpayable",
					"type": "function"
				},
				{
					"stateMutability": "payable",
					"type": "receive"
				}
			],
			"devdoc": {
				"details": "A simple open auction contract where the highest bidder wins.",
				"kind": "dev",
				"methods": {
					"auctionEnd()": {
						"details": "Ends the auction and transfers the highest bid amount to the beneficiary."
					},
					"bid()": {
						"details": "Allows users to place bids. If a new highest bid is placed, the previous highest bidder is refunded."
					},
					"constructor": {
						"details": "Constructor initializes the auction with a bidding time and a beneficiary address.",
						"params": {
							"beneficiaryAddress": "Address that will receive the highest bid at the end.",
							"biddingTime": "Duration of the auction in seconds."
						}
					},
					"withdraw()": {
						"details": "Allows users to withdraw their pending returns if they have been outbid."
					}
				},
				"title": "SimpleAuction",
				"version": 1
			},
			"evm": {
				"assembly": "    /* \"contracts/SimpleAuction.sol\":160:2978  contract SimpleAuction {... */\n  mstore(0x40, 0x80)\n    /* \"contracts/SimpleAuction.sol\":928:1102  constructor(uint256 biddingTime, address payable beneficiaryAddress) {... */\n  callvalue\n  dup1\n  iszero\n  tag_1\n  jumpi\n  0x00\n  dup1\n  revert\ntag_1:\n  pop\n  mload(0x40)\n  sub(codesize, bytecodeSize)\n  dup1\n  bytecodeSize\n  dup4\n  codecopy\n  dup2\n  dup2\n  add\n  0x40\n  mstore\n  dup2\n  add\n  swap1\n  tag_2\n  swap2\n  swap1\n  tag_3\n  jump\t// in\ntag_2:\n    /* \"contracts/SimpleAuction.sol\":1021:1039  beneficiaryAddress */\n  dup1\n    /* \"contracts/SimpleAuction.sol\":1007:1018  beneficiary */\n  0x00\n  dup1\n    /* \"contracts/SimpleAuction.sol\":1007:1039  beneficiary = beneficiaryAddress */\n  0x0100\n  exp\n  dup2\n  sload\n  dup2\n  0xffffffffffffffffffffffffffffffffffffffff\n  mul\n  not\n  and\n  swap1\n  dup4\n  0xffffffffffffffffffffffffffffffffffffffff\n  and\n  mul\n  or\n  swap1\n  sstore\n  pop\n    /* \"contracts/SimpleAuction.sol\":1084:1095  biddingTime */\n  dup2\n    /* \"contracts/SimpleAuction.sol\":1066:1081  block.timestamp */\n  timestamp\n    /* \"contracts/SimpleAuction.sol\":1066:1095  block.timestamp + biddingTime */\n  tag_6\n  swap2\n  swap1\n  tag_7\n  jump\t// in\ntag_6:\n    /* \"contracts/SimpleAuction.sol\":1049:1063  auctionEndTime */\n  0x01\n    /* \"contracts/SimpleAuction.sol\":1049:1095  auctionEndTime = block.timestamp + biddingTime */\n  dup2\n  swap1\n  sstore\n  pop\n    /* \"contracts/SimpleAuction.sol\":928:1102  constructor(uint256 biddingTime, address payable beneficiaryAddress) {... */\n  pop\n  pop\n    /* \"contracts/SimpleAuction.sol\":160:2978  contract SimpleAuction {... */\n  jump(tag_8)\n    /* \"#utility.yul\":88:205   */\ntag_10:\n    /* \"#utility.yul\":197:198   */\n  0x00\n    /* \"#utility.yul\":194:195   */\n  dup1\n    /* \"#utility.yul\":187:199   */\n  revert\n    /* \"#utility.yul\":334:411   */\ntag_12:\n    /* \"#utility.yul\":371:378   */\n  0x00\n    /* \"#utility.yul\":400:405   */\n  dup2\n    /* \"#utility.yul\":389:405   */\n  swap1\n  pop\n    /* \"#utility.yul\":334:411   */\n  swap2\n  swap1\n  pop\n  jump\t// out\n    /* \"#utility.yul\":417:539   */\ntag_13:\n    /* \"#utility.yul\":490:514   */\n  tag_26\n    /* \"#utility.yul\":508:513   */\n  dup2\n    /* \"#utility.yul\":490:514   */\n  tag_12\n  jump\t// in\ntag_26:\n    /* \"#utility.yul\":483:488   */\n  dup2\n    /* \"#utility.yul\":480:515   */\n  eq\n    /* \"#utility.yul\":470:533   */\n  tag_27\n  jumpi\n    /* \"#utility.yul\":529:530   */\n  0x00\n    /* \"#utility.yul\":526:527   */\n  dup1\n    /* \"#utility.yul\":519:531   */\n  revert\n    /* \"#utility.yul\":470:533   */\ntag_27:\n    /* \"#utility.yul\":417:539   */\n  pop\n  jump\t// out\n    /* \"#utility.yul\":545:688   */\ntag_14:\n    /* \"#utility.yul\":602:607   */\n  0x00\n    /* \"#utility.yul\":633:639   */\n  dup2\n    /* \"#utility.yul\":627:640   */\n  mload\n    /* \"#utility.yul\":618:640   */\n  swap1\n  pop\n    /* \"#utility.yul\":649:682   */\n  tag_29\n    /* \"#utility.yul\":676:681   */\n  dup2\n    /* \"#utility.yul\":649:682   */\n  tag_13\n  jump\t// in\ntag_29:\n    /* \"#utility.yul\":545:688   */\n  swap3\n  swap2\n  pop\n  pop\n  jump\t// out\n    /* \"#utility.yul\":694:820   */\ntag_15:\n    /* \"#utility.yul\":731:738   */\n  0x00\n    /* \"#utility.yul\":771:813   */\n  0xffffffffffffffffffffffffffffffffffffffff\n    /* \"#utility.yul\":764:769   */\n  dup3\n    /* \"#utility.yul\":760:814   */\n  and\n    /* \"#utility.yul\":749:814   */\n  swap1\n  pop\n    /* \"#utility.yul\":694:820   */\n  swap2\n  swap1\n  pop\n  jump\t// out\n    /* \"#utility.yul\":826:930   */\ntag_16:\n    /* \"#utility.yul\":871:878   */\n  0x00\n    /* \"#utility.yul\":900:924   */\n  tag_32\n    /* \"#utility.yul\":918:923   */\n  dup3\n    /* \"#utility.yul\":900:924   */\n  tag_15\n  jump\t// in\ntag_32:\n    /* \"#utility.yul\":889:924   */\n  swap1\n  pop\n    /* \"#utility.yul\":826:930   */\n  swap2\n  swap1\n  pop\n  jump\t// out\n    /* \"#utility.yul\":936:1074   */\ntag_17:\n    /* \"#utility.yul\":1017:1049   */\n  tag_34\n    /* \"#utility.yul\":1043:1048   */\n  dup2\n    /* \"#utility.yul\":1017:1049   */\n  tag_16\n  jump\t// in\ntag_34:\n    /* \"#utility.yul\":1010:1015   */\n  dup2\n    /* \"#utility.yul\":1007:1050   */\n  eq\n    /* \"#utility.yul\":997:1068   */\n  tag_35\n  jumpi\n    /* \"#utility.yul\":1064:1065   */\n  0x00\n    /* \"#utility.yul\":1061:1062   */\n  dup1\n    /* \"#utility.yul\":1054:1066   */\n  revert\n    /* \"#utility.yul\":997:1068   */\ntag_35:\n    /* \"#utility.yul\":936:1074   */\n  pop\n  jump\t// out\n    /* \"#utility.yul\":1080:1239   */\ntag_18:\n    /* \"#utility.yul\":1145:1150   */\n  0x00\n    /* \"#utility.yul\":1176:1182   */\n  dup2\n    /* \"#utility.yul\":1170:1183   */\n  mload\n    /* \"#utility.yul\":1161:1183   */\n  swap1\n  pop\n    /* \"#utility.yul\":1192:1233   */\n  tag_37\n    /* \"#utility.yul\":1227:1232   */\n  dup2\n    /* \"#utility.yul\":1192:1233   */\n  tag_17\n  jump\t// in\ntag_37:\n    /* \"#utility.yul\":1080:1239   */\n  swap3\n  swap2\n  pop\n  pop\n  jump\t// out\n    /* \"#utility.yul\":1245:1768   */\ntag_3:\n    /* \"#utility.yul\":1332:1338   */\n  0x00\n    /* \"#utility.yul\":1340:1346   */\n  dup1\n    /* \"#utility.yul\":1389:1391   */\n  0x40\n    /* \"#utility.yul\":1377:1386   */\n  dup4\n    /* \"#utility.yul\":1368:1375   */\n  dup6\n    /* \"#utility.yul\":1364:1387   */\n  sub\n    /* \"#utility.yul\":1360:1392   */\n  slt\n    /* \"#utility.yul\":1357:1476   */\n  iszero\n  tag_39\n  jumpi\n    /* \"#utility.yul\":1395:1474   */\n  tag_40\n  tag_10\n  jump\t// in\ntag_40:\n    /* \"#utility.yul\":1357:1476   */\ntag_39:\n    /* \"#utility.yul\":1515:1516   */\n  0x00\n    /* \"#utility.yul\":1540:1604   */\n  tag_41\n    /* \"#utility.yul\":1596:1603   */\n  dup6\n    /* \"#utility.yul\":1587:1593   */\n  dup3\n    /* \"#utility.yul\":1576:1585   */\n  dup7\n    /* \"#utility.yul\":1572:1594   */\n  add\n    /* \"#utility.yul\":1540:1604   */\n  tag_14\n  jump\t// in\ntag_41:\n    /* \"#utility.yul\":1530:1604   */\n  swap3\n  pop\n    /* \"#utility.yul\":1486:1614   */\n  pop\n    /* \"#utility.yul\":1653:1655   */\n  0x20\n    /* \"#utility.yul\":1679:1751   */\n  tag_42\n    /* \"#utility.yul\":1743:1750   */\n  dup6\n    /* \"#utility.yul\":1734:1740   */\n  dup3\n    /* \"#utility.yul\":1723:1732   */\n  dup7\n    /* \"#utility.yul\":1719:1741   */\n  add\n    /* \"#utility.yul\":1679:1751   */\n  tag_18\n  jump\t// in\ntag_42:\n    /* \"#utility.yul\":1669:1751   */\n  swap2\n  pop\n    /* \"#utility.yul\":1624:1761   */\n  pop\n    /* \"#utility.yul\":1245:1768   */\n  swap3\n  pop\n  swap3\n  swap1\n  pop\n  jump\t// out\n    /* \"#utility.yul\":1774:1954   */\ntag_19:\n    /* \"#utility.yul\":1822:1899   */\n  0x4e487b7100000000000000000000000000000000000000000000000000000000\n    /* \"#utility.yul\":1819:1820   */\n  0x00\n    /* \"#utility.yul\":1812:1900   */\n  mstore\n    /* \"#utility.yul\":1919:1923   */\n  0x11\n    /* \"#utility.yul\":1916:1917   */\n  0x04\n    /* \"#utility.yul\":1909:1924   */\n  mstore\n    /* \"#utility.yul\":1943:1947   */\n  0x24\n    /* \"#utility.yul\":1940:1941   */\n  0x00\n    /* \"#utility.yul\":1933:1948   */\n  revert\n    /* \"#utility.yul\":1960:2151   */\ntag_7:\n    /* \"#utility.yul\":2000:2003   */\n  0x00\n    /* \"#utility.yul\":2019:2039   */\n  tag_45\n    /* \"#utility.yul\":2037:2038   */\n  dup3\n    /* \"#utility.yul\":2019:2039   */\n  tag_12\n  jump\t// in\ntag_45:\n    /* \"#utility.yul\":2014:2039   */\n  swap2\n  pop\n    /* \"#utility.yul\":2053:2073   */\n  tag_46\n    /* \"#utility.yul\":2071:2072   */\n  dup4\n    /* \"#utility.yul\":2053:2073   */\n  tag_12\n  jump\t// in\ntag_46:\n    /* \"#utility.yul\":2048:2073   */\n  swap3\n  pop\n    /* \"#utility.yul\":2096:2097   */\n  dup3\n    /* \"#utility.yul\":2093:2094   */\n  dup3\n    /* \"#utility.yul\":2089:2098   */\n  add\n    /* \"#utility.yul\":2082:2098   */\n  swap1\n  pop\n    /* \"#utility.yul\":2117:2120   */\n  dup1\n    /* \"#utility.yul\":2114:2115   */\n  dup3\n    /* \"#utility.yul\":2111:2121   */\n  gt\n    /* \"#utility.yul\":2108:2144   */\n  iszero\n  tag_47\n  jumpi\n    /* \"#utility.yul\":2124:2142   */\n  tag_48\n  tag_19\n  jump\t// in\ntag_48:\n    /* \"#utility.yul\":2108:2144   */\ntag_47:\n    /* \"#utility.yul\":1960:2151   */\n  swap3\n  swap2\n  pop\n  pop\n  jump\t// out\n    /* \"contracts/SimpleAuction.sol\":160:2978  contract SimpleAuction {... */\ntag_8:\n  dataSize(sub_0)\n  dup1\n  dataOffset(sub_0)\n  0x00\n  codecopy\n  0x00\n  return\nstop\n\nsub_0: assembly {\n        /* \"contracts/SimpleAuction.sol\":160:2978  contract SimpleAuction {... */\n      mstore(0x40, 0x80)\n      jumpi(tag_1, lt(calldatasize, 0x04))\n      shr(0xe0, calldataload(0x00))\n      dup1\n      0x3ccfd60b\n      gt\n      tag_10\n      jumpi\n      dup1\n      0x3ccfd60b\n      eq\n      tag_6\n      jumpi\n      dup1\n      0x4b449cba\n      eq\n      tag_7\n      jumpi\n      dup1\n      0x91f90157\n      eq\n      tag_8\n      jumpi\n      dup1\n      0xd57bde79\n      eq\n      tag_9\n      jumpi\n      jump(tag_2)\n    tag_10:\n      dup1\n      0x1998aeef\n      eq\n      tag_3\n      jumpi\n      dup1\n      0x2a24f46c\n      eq\n      tag_4\n      jumpi\n      dup1\n      0x38af3eed\n      eq\n      tag_5\n      jumpi\n      jump(tag_2)\n    tag_1:\n      jumpi(tag_2, calldatasize)\n        /* \"contracts/SimpleAuction.sol\":2759:2801  revert(\"Direct ETH transfer not allowed.\") */\n      mload(0x40)\n      0x08c379a000000000000000000000000000000000000000000000000000000000\n      dup2\n      mstore\n      0x04\n      add\n      tag_13\n      swap1\n      tag_14\n      jump\t// in\n    tag_13:\n      mload(0x40)\n      dup1\n      swap2\n      sub\n      swap1\n      revert\n        /* \"contracts/SimpleAuction.sol\":160:2978  contract SimpleAuction {... */\n    tag_2:\n        /* \"contracts/SimpleAuction.sol\":2935:2969  revert(\"Function does not exist.\") */\n      mload(0x40)\n      0x08c379a000000000000000000000000000000000000000000000000000000000\n      dup2\n      mstore\n      0x04\n      add\n      tag_17\n      swap1\n      tag_18\n      jump\t// in\n    tag_17:\n      mload(0x40)\n      dup1\n      swap2\n      sub\n      swap1\n      revert\n        /* \"contracts/SimpleAuction.sol\":1237:1650  function bid() external payable {... */\n    tag_3:\n      tag_19\n      tag_20\n      jump\t// in\n    tag_19:\n      stop\n        /* \"contracts/SimpleAuction.sol\":2272:2630  function auctionEnd() external {... */\n    tag_4:\n      callvalue\n      dup1\n      iszero\n      tag_21\n      jumpi\n      0x00\n      dup1\n      revert\n    tag_21:\n      pop\n      tag_22\n      tag_23\n      jump\t// in\n    tag_22:\n      stop\n        /* \"contracts/SimpleAuction.sol\":189:223  address payable public beneficiary */\n    tag_5:\n      callvalue\n      dup1\n      iszero\n      tag_24\n      jumpi\n      0x00\n      dup1\n      revert\n    tag_24:\n      pop\n      tag_25\n      tag_26\n      jump\t// in\n    tag_25:\n      mload(0x40)\n      tag_27\n      swap2\n      swap1\n      tag_28\n      jump\t// in\n    tag_27:\n      mload(0x40)\n      dup1\n      swap2\n      sub\n      swap1\n      return\n        /* \"contracts/SimpleAuction.sol\":1757:2164  function withdraw() external returns (bool) {... */\n    tag_6:\n      callvalue\n      dup1\n      iszero\n      tag_29\n      jumpi\n      0x00\n      dup1\n      revert\n    tag_29:\n      pop\n      tag_30\n      tag_31\n      jump\t// in\n    tag_30:\n      mload(0x40)\n      tag_32\n      swap2\n      swap1\n      tag_33\n      jump\t// in\n    tag_32:\n      mload(0x40)\n      dup1\n      swap2\n      sub\n      swap1\n      return\n        /* \"contracts/SimpleAuction.sol\":229:258  uint256 public auctionEndTime */\n    tag_7:\n      callvalue\n      dup1\n      iszero\n      tag_34\n      jumpi\n      0x00\n      dup1\n      revert\n    tag_34:\n      pop\n      tag_35\n      tag_36\n      jump\t// in\n    tag_35:\n      mload(0x40)\n      tag_37\n      swap2\n      swap1\n      tag_38\n      jump\t// in\n    tag_37:\n      mload(0x40)\n      dup1\n      swap2\n      sub\n      swap1\n      return\n        /* \"contracts/SimpleAuction.sol\":265:293  address public highestBidder */\n    tag_8:\n      callvalue\n      dup1\n      iszero\n      tag_39\n      jumpi\n      0x00\n      dup1\n      revert\n    tag_39:\n      pop\n      tag_40\n      tag_41\n      jump\t// in\n    tag_40:\n      mload(0x40)\n      tag_42\n      swap2\n      swap1\n      tag_43\n      jump\t// in\n    tag_42:\n      mload(0x40)\n      dup1\n      swap2\n      sub\n      swap1\n      return\n        /* \"contracts/SimpleAuction.sol\":299:324  uint256 public highestBid */\n    tag_9:\n      callvalue\n      dup1\n      iszero\n      tag_44\n      jumpi\n      0x00\n      dup1\n      revert\n    tag_44:\n      pop\n      tag_45\n      tag_46\n      jump\t// in\n    tag_45:\n      mload(0x40)\n      tag_47\n      swap2\n      swap1\n      tag_38\n      jump\t// in\n    tag_47:\n      mload(0x40)\n      dup1\n      swap2\n      sub\n      swap1\n      return\n        /* \"contracts/SimpleAuction.sol\":1237:1650  function bid() external payable {... */\n    tag_20:\n        /* \"contracts/SimpleAuction.sol\":1301:1315  auctionEndTime */\n      sload(0x01)\n        /* \"contracts/SimpleAuction.sol\":1283:1298  block.timestamp */\n      timestamp\n        /* \"contracts/SimpleAuction.sol\":1283:1315  block.timestamp > auctionEndTime */\n      gt\n        /* \"contracts/SimpleAuction.sol\":1279:1345  if (block.timestamp > auctionEndTime) revert AuctionAlreadyEnded() */\n      iszero\n      tag_49\n      jumpi\n        /* \"contracts/SimpleAuction.sol\":1324:1345  AuctionAlreadyEnded() */\n      mload(0x40)\n      0xd02e774d00000000000000000000000000000000000000000000000000000000\n      dup2\n      mstore\n      0x04\n      add\n      mload(0x40)\n      dup1\n      swap2\n      sub\n      swap1\n      revert\n        /* \"contracts/SimpleAuction.sol\":1279:1345  if (block.timestamp > auctionEndTime) revert AuctionAlreadyEnded() */\n    tag_49:\n        /* \"contracts/SimpleAuction.sol\":1372:1382  highestBid */\n      sload(0x03)\n        /* \"contracts/SimpleAuction.sol\":1359:1368  msg.value */\n      callvalue\n        /* \"contracts/SimpleAuction.sol\":1359:1382  msg.value <= highestBid */\n      gt\n        /* \"contracts/SimpleAuction.sol\":1355:1419  if (msg.value <= highestBid) revert BidNotHighEnough(highestBid) */\n      tag_50\n      jumpi\n        /* \"contracts/SimpleAuction.sol\":1408:1418  highestBid */\n      sload(0x03)\n        /* \"contracts/SimpleAuction.sol\":1391:1419  BidNotHighEnough(highestBid) */\n      mload(0x40)\n      0x4e12c1bb00000000000000000000000000000000000000000000000000000000\n      dup2\n      mstore\n      0x04\n      add\n      tag_51\n      swap2\n      swap1\n      tag_38\n      jump\t// in\n    tag_51:\n      mload(0x40)\n      dup1\n      swap2\n      sub\n      swap1\n      revert\n        /* \"contracts/SimpleAuction.sol\":1355:1419  if (msg.value <= highestBid) revert BidNotHighEnough(highestBid) */\n    tag_50:\n        /* \"contracts/SimpleAuction.sol\":1448:1449  0 */\n      0x00\n        /* \"contracts/SimpleAuction.sol\":1434:1444  highestBid */\n      sload(0x03)\n        /* \"contracts/SimpleAuction.sol\":1434:1449  highestBid != 0 */\n      eq\n        /* \"contracts/SimpleAuction.sol\":1430:1519  if (highestBid != 0) {... */\n      tag_52\n      jumpi\n        /* \"contracts/SimpleAuction.sol\":1498:1508  highestBid */\n      sload(0x03)\n        /* \"contracts/SimpleAuction.sol\":1465:1479  pendingReturns */\n      0x04\n        /* \"contracts/SimpleAuction.sol\":1465:1494  pendingReturns[highestBidder] */\n      0x00\n        /* \"contracts/SimpleAuction.sol\":1480:1493  highestBidder */\n      0x02\n      0x00\n      swap1\n      sload\n      swap1\n      0x0100\n      exp\n      swap1\n      div\n      0xffffffffffffffffffffffffffffffffffffffff\n      and\n        /* \"contracts/SimpleAuction.sol\":1465:1494  pendingReturns[highestBidder] */\n      0xffffffffffffffffffffffffffffffffffffffff\n      and\n      0xffffffffffffffffffffffffffffffffffffffff\n      and\n      dup2\n      mstore\n      0x20\n      add\n      swap1\n      dup2\n      mstore\n      0x20\n      add\n      0x00\n      keccak256\n      0x00\n        /* \"contracts/SimpleAuction.sol\":1465:1508  pendingReturns[highestBidder] += highestBid */\n      dup3\n      dup3\n      sload\n      tag_53\n      swap2\n      swap1\n      tag_54\n      jump\t// in\n    tag_53:\n      swap3\n      pop\n      pop\n      dup2\n      swap1\n      sstore\n      pop\n        /* \"contracts/SimpleAuction.sol\":1430:1519  if (highestBid != 0) {... */\n    tag_52:\n        /* \"contracts/SimpleAuction.sol\":1544:1554  msg.sender */\n      caller\n        /* \"contracts/SimpleAuction.sol\":1528:1541  highestBidder */\n      0x02\n      0x00\n        /* \"contracts/SimpleAuction.sol\":1528:1554  highestBidder = msg.sender */\n      0x0100\n      exp\n      dup2\n      sload\n      dup2\n      0xffffffffffffffffffffffffffffffffffffffff\n      mul\n      not\n      and\n      swap1\n      dup4\n      0xffffffffffffffffffffffffffffffffffffffff\n      and\n      mul\n      or\n      swap1\n      sstore\n      pop\n        /* \"contracts/SimpleAuction.sol\":1577:1586  msg.value */\n      callvalue\n        /* \"contracts/SimpleAuction.sol\":1564:1574  highestBid */\n      0x03\n        /* \"contracts/SimpleAuction.sol\":1564:1586  highestBid = msg.value */\n      dup2\n      swap1\n      sstore\n      pop\n        /* \"contracts/SimpleAuction.sol\":1601:1643  HighestBidIncreased(msg.sender, msg.value) */\n      0xf4757a49b326036464bec6fe419a4ae38c8a02ce3e68bf0809674f6aab8ad300\n        /* \"contracts/SimpleAuction.sol\":1621:1631  msg.sender */\n      caller\n        /* \"contracts/SimpleAuction.sol\":1633:1642  msg.value */\n      callvalue\n        /* \"contracts/SimpleAuction.sol\":1601:1643  HighestBidIncreased(msg.sender, msg.value) */\n      mload(0x40)\n      tag_55\n      swap3\n      swap2\n      swap1\n      tag_56\n      jump\t// in\n    tag_55:\n      mload(0x40)\n      dup1\n      swap2\n      sub\n      swap1\n      log1\n        /* \"contracts/SimpleAuction.sol\":1237:1650  function bid() external payable {... */\n      jump\t// out\n        /* \"contracts/SimpleAuction.sol\":2272:2630  function auctionEnd() external {... */\n    tag_23:\n        /* \"contracts/SimpleAuction.sol\":2335:2349  auctionEndTime */\n      sload(0x01)\n        /* \"contracts/SimpleAuction.sol\":2317:2332  block.timestamp */\n      timestamp\n        /* \"contracts/SimpleAuction.sol\":2317:2349  block.timestamp < auctionEndTime */\n      lt\n        /* \"contracts/SimpleAuction.sol\":2313:2378  if (block.timestamp < auctionEndTime) revert AuctionNotYetEnded() */\n      iszero\n      tag_58\n      jumpi\n        /* \"contracts/SimpleAuction.sol\":2358:2378  AuctionNotYetEnded() */\n      mload(0x40)\n      0x44cee29000000000000000000000000000000000000000000000000000000000\n      dup2\n      mstore\n      0x04\n      add\n      mload(0x40)\n      dup1\n      swap2\n      sub\n      swap1\n      revert\n        /* \"contracts/SimpleAuction.sol\":2313:2378  if (block.timestamp < auctionEndTime) revert AuctionNotYetEnded() */\n    tag_58:\n        /* \"contracts/SimpleAuction.sol\":2392:2397  ended */\n      0x05\n      0x00\n      swap1\n      sload\n      swap1\n      0x0100\n      exp\n      swap1\n      div\n      0xff\n      and\n        /* \"contracts/SimpleAuction.sol\":2388:2431  if (ended) revert AuctionEndAlreadyCalled() */\n      iszero\n      tag_59\n      jumpi\n        /* \"contracts/SimpleAuction.sol\":2406:2431  AuctionEndAlreadyCalled() */\n      mload(0x40)\n      0x61cfdcf800000000000000000000000000000000000000000000000000000000\n      dup2\n      mstore\n      0x04\n      add\n      mload(0x40)\n      dup1\n      swap2\n      sub\n      swap1\n      revert\n        /* \"contracts/SimpleAuction.sol\":2388:2431  if (ended) revert AuctionEndAlreadyCalled() */\n    tag_59:\n        /* \"contracts/SimpleAuction.sol\":2450:2454  true */\n      0x01\n        /* \"contracts/SimpleAuction.sol\":2442:2447  ended */\n      0x05\n      0x00\n        /* \"contracts/SimpleAuction.sol\":2442:2454  ended = true */\n      0x0100\n      exp\n      dup2\n      sload\n      dup2\n      0xff\n      mul\n      not\n      and\n      swap1\n      dup4\n      iszero\n      iszero\n      mul\n      or\n      swap1\n      sstore\n      pop\n        /* \"contracts/SimpleAuction.sol\":2469:2508  AuctionEnded(highestBidder, highestBid) */\n      0xdaec4582d5d9595688c8c98545fdd1c696d41c6aeaeb636737e84ed2f5c00eda\n        /* \"contracts/SimpleAuction.sol\":2482:2495  highestBidder */\n      0x02\n      0x00\n      swap1\n      sload\n      swap1\n      0x0100\n      exp\n      swap1\n      div\n      0xffffffffffffffffffffffffffffffffffffffff\n      and\n        /* \"contracts/SimpleAuction.sol\":2497:2507  highestBid */\n      sload(0x03)\n        /* \"contracts/SimpleAuction.sol\":2469:2508  AuctionEnded(highestBidder, highestBid) */\n      mload(0x40)\n      tag_60\n      swap3\n      swap2\n      swap1\n      tag_56\n      jump\t// in\n    tag_60:\n      mload(0x40)\n      dup1\n      swap2\n      sub\n      swap1\n      log1\n        /* \"contracts/SimpleAuction.sol\":2520:2532  bool success */\n      0x00\n        /* \"contracts/SimpleAuction.sol\":2538:2549  beneficiary */\n      dup1\n      0x00\n      swap1\n      sload\n      swap1\n      0x0100\n      exp\n      swap1\n      div\n      0xffffffffffffffffffffffffffffffffffffffff\n      and\n        /* \"contracts/SimpleAuction.sol\":2538:2554  beneficiary.call */\n      0xffffffffffffffffffffffffffffffffffffffff\n      and\n        /* \"contracts/SimpleAuction.sol\":2562:2572  highestBid */\n      sload(0x03)\n        /* \"contracts/SimpleAuction.sol\":2538:2577  beneficiary.call{value: highestBid}(\"\") */\n      mload(0x40)\n      tag_61\n      swap1\n      tag_62\n      jump\t// in\n    tag_61:\n      0x00\n      mload(0x40)\n      dup1\n      dup4\n      sub\n      dup2\n      dup6\n      dup8\n      gas\n      call\n      swap3\n      pop\n      pop\n      pop\n      returndatasize\n      dup1\n      0x00\n      dup2\n      eq\n      tag_65\n      jumpi\n      mload(0x40)\n      swap2\n      pop\n      and(add(returndatasize, 0x3f), not(0x1f))\n      dup3\n      add\n      0x40\n      mstore\n      returndatasize\n      dup3\n      mstore\n      returndatasize\n      0x00\n      0x20\n      dup5\n      add\n      returndatacopy\n      jump(tag_64)\n    tag_65:\n      0x60\n      swap2\n      pop\n    tag_64:\n      pop\n        /* \"contracts/SimpleAuction.sol\":2519:2577  (bool success, ) = beneficiary.call{value: highestBid}(\"\") */\n      pop\n      swap1\n      pop\n        /* \"contracts/SimpleAuction.sol\":2595:2602  success */\n      dup1\n        /* \"contracts/SimpleAuction.sol\":2587:2623  require(success, \"Transfer failed.\") */\n      tag_66\n      jumpi\n      mload(0x40)\n      0x08c379a000000000000000000000000000000000000000000000000000000000\n      dup2\n      mstore\n      0x04\n      add\n      tag_67\n      swap1\n      tag_68\n      jump\t// in\n    tag_67:\n      mload(0x40)\n      dup1\n      swap2\n      sub\n      swap1\n      revert\n    tag_66:\n        /* \"contracts/SimpleAuction.sol\":2303:2630  {... */\n      pop\n        /* \"contracts/SimpleAuction.sol\":2272:2630  function auctionEnd() external {... */\n      jump\t// out\n        /* \"contracts/SimpleAuction.sol\":189:223  address payable public beneficiary */\n    tag_26:\n      0x00\n      dup1\n      sload\n      swap1\n      0x0100\n      exp\n      swap1\n      div\n      0xffffffffffffffffffffffffffffffffffffffff\n      and\n      dup2\n      jump\t// out\n        /* \"contracts/SimpleAuction.sol\":1757:2164  function withdraw() external returns (bool) {... */\n    tag_31:\n        /* \"contracts/SimpleAuction.sol\":1795:1799  bool */\n      0x00\n        /* \"contracts/SimpleAuction.sol\":1811:1825  uint256 amount */\n      dup1\n        /* \"contracts/SimpleAuction.sol\":1828:1842  pendingReturns */\n      0x04\n        /* \"contracts/SimpleAuction.sol\":1828:1854  pendingReturns[msg.sender] */\n      0x00\n        /* \"contracts/SimpleAuction.sol\":1843:1853  msg.sender */\n      caller\n        /* \"contracts/SimpleAuction.sol\":1828:1854  pendingReturns[msg.sender] */\n      0xffffffffffffffffffffffffffffffffffffffff\n      and\n      0xffffffffffffffffffffffffffffffffffffffff\n      and\n      dup2\n      mstore\n      0x20\n      add\n      swap1\n      dup2\n      mstore\n      0x20\n      add\n      0x00\n      keccak256\n      sload\n        /* \"contracts/SimpleAuction.sol\":1811:1854  uint256 amount = pendingReturns[msg.sender] */\n      swap1\n      pop\n        /* \"contracts/SimpleAuction.sol\":1877:1878  0 */\n      0x00\n        /* \"contracts/SimpleAuction.sol\":1868:1874  amount */\n      dup2\n        /* \"contracts/SimpleAuction.sol\":1868:1878  amount > 0 */\n      gt\n        /* \"contracts/SimpleAuction.sol\":1864:2137  if (amount > 0) {... */\n      iszero\n      tag_70\n      jumpi\n        /* \"contracts/SimpleAuction.sol\":1923:1924  0 */\n      0x00\n        /* \"contracts/SimpleAuction.sol\":1894:1908  pendingReturns */\n      0x04\n        /* \"contracts/SimpleAuction.sol\":1894:1920  pendingReturns[msg.sender] */\n      0x00\n        /* \"contracts/SimpleAuction.sol\":1909:1919  msg.sender */\n      caller\n        /* \"contracts/SimpleAuction.sol\":1894:1920  pendingReturns[msg.sender] */\n      0xffffffffffffffffffffffffffffffffffffffff\n      and\n      0xffffffffffffffffffffffffffffffffffffffff\n      and\n      dup2\n      mstore\n      0x20\n      add\n      swap1\n      dup2\n      mstore\n      0x20\n      add\n      0x00\n      keccak256\n        /* \"contracts/SimpleAuction.sol\":1894:1924  pendingReturns[msg.sender] = 0 */\n      dup2\n      swap1\n      sstore\n      pop\n        /* \"contracts/SimpleAuction.sol\":1940:1952  bool success */\n      0x00\n        /* \"contracts/SimpleAuction.sol\":1966:1976  msg.sender */\n      caller\n        /* \"contracts/SimpleAuction.sol\":1958:1982  payable(msg.sender).call */\n      0xffffffffffffffffffffffffffffffffffffffff\n      and\n        /* \"contracts/SimpleAuction.sol\":1990:1996  amount */\n      dup3\n        /* \"contracts/SimpleAuction.sol\":1958:2001  payable(msg.sender).call{value: amount}(\"\") */\n      mload(0x40)\n      tag_71\n      swap1\n      tag_62\n      jump\t// in\n    tag_71:\n      0x00\n      mload(0x40)\n      dup1\n      dup4\n      sub\n      dup2\n      dup6\n      dup8\n      gas\n      call\n      swap3\n      pop\n      pop\n      pop\n      returndatasize\n      dup1\n      0x00\n      dup2\n      eq\n      tag_74\n      jumpi\n      mload(0x40)\n      swap2\n      pop\n      and(add(returndatasize, 0x3f), not(0x1f))\n      dup3\n      add\n      0x40\n      mstore\n      returndatasize\n      dup3\n      mstore\n      returndatasize\n      0x00\n      0x20\n      dup5\n      add\n      returndatacopy\n      jump(tag_73)\n    tag_74:\n      0x60\n      swap2\n      pop\n    tag_73:\n      pop\n        /* \"contracts/SimpleAuction.sol\":1939:2001  (bool success, ) = payable(msg.sender).call{value: amount}(\"\") */\n      pop\n      swap1\n      pop\n        /* \"contracts/SimpleAuction.sol\":2020:2027  success */\n      dup1\n        /* \"contracts/SimpleAuction.sol\":2015:2127  if (!success) {... */\n      tag_75\n      jumpi\n        /* \"contracts/SimpleAuction.sol\":2076:2082  amount */\n      dup2\n        /* \"contracts/SimpleAuction.sol\":2047:2061  pendingReturns */\n      0x04\n        /* \"contracts/SimpleAuction.sol\":2047:2073  pendingReturns[msg.sender] */\n      0x00\n        /* \"contracts/SimpleAuction.sol\":2062:2072  msg.sender */\n      caller\n        /* \"contracts/SimpleAuction.sol\":2047:2073  pendingReturns[msg.sender] */\n      0xffffffffffffffffffffffffffffffffffffffff\n      and\n      0xffffffffffffffffffffffffffffffffffffffff\n      and\n      dup2\n      mstore\n      0x20\n      add\n      swap1\n      dup2\n      mstore\n      0x20\n      add\n      0x00\n      keccak256\n        /* \"contracts/SimpleAuction.sol\":2047:2082  pendingReturns[msg.sender] = amount */\n      dup2\n      swap1\n      sstore\n      pop\n        /* \"contracts/SimpleAuction.sol\":2107:2112  false */\n      0x00\n        /* \"contracts/SimpleAuction.sol\":2100:2112  return false */\n      swap3\n      pop\n      pop\n      pop\n      jump(tag_69)\n        /* \"contracts/SimpleAuction.sol\":2015:2127  if (!success) {... */\n    tag_75:\n        /* \"contracts/SimpleAuction.sol\":1880:2137  {... */\n      pop\n        /* \"contracts/SimpleAuction.sol\":1864:2137  if (amount > 0) {... */\n    tag_70:\n        /* \"contracts/SimpleAuction.sol\":2153:2157  true */\n      0x01\n        /* \"contracts/SimpleAuction.sol\":2146:2157  return true */\n      swap2\n      pop\n      pop\n        /* \"contracts/SimpleAuction.sol\":1757:2164  function withdraw() external returns (bool) {... */\n    tag_69:\n      swap1\n      jump\t// out\n        /* \"contracts/SimpleAuction.sol\":229:258  uint256 public auctionEndTime */\n    tag_36:\n      sload(0x01)\n      dup2\n      jump\t// out\n        /* \"contracts/SimpleAuction.sol\":265:293  address public highestBidder */\n    tag_41:\n      0x02\n      0x00\n      swap1\n      sload\n      swap1\n      0x0100\n      exp\n      swap1\n      div\n      0xffffffffffffffffffffffffffffffffffffffff\n      and\n      dup2\n      jump\t// out\n        /* \"contracts/SimpleAuction.sol\":299:324  uint256 public highestBid */\n    tag_46:\n      sload(0x03)\n      dup2\n      jump\t// out\n        /* \"#utility.yul\":7:176   */\n    tag_76:\n        /* \"#utility.yul\":91:102   */\n      0x00\n        /* \"#utility.yul\":125:131   */\n      dup3\n        /* \"#utility.yul\":120:123   */\n      dup3\n        /* \"#utility.yul\":113:132   */\n      mstore\n        /* \"#utility.yul\":165:169   */\n      0x20\n        /* \"#utility.yul\":160:163   */\n      dup3\n        /* \"#utility.yul\":156:170   */\n      add\n        /* \"#utility.yul\":141:170   */\n      swap1\n      pop\n        /* \"#utility.yul\":7:176   */\n      swap3\n      swap2\n      pop\n      pop\n      jump\t// out\n        /* \"#utility.yul\":182:364   */\n    tag_77:\n        /* \"#utility.yul\":322:356   */\n      0x44697265637420455448207472616e73666572206e6f7420616c6c6f7765642e\n        /* \"#utility.yul\":318:319   */\n      0x00\n        /* \"#utility.yul\":310:316   */\n      dup3\n        /* \"#utility.yul\":306:320   */\n      add\n        /* \"#utility.yul\":299:357   */\n      mstore\n        /* \"#utility.yul\":182:364   */\n      pop\n      jump\t// out\n        /* \"#utility.yul\":370:736   */\n    tag_78:\n        /* \"#utility.yul\":512:515   */\n      0x00\n        /* \"#utility.yul\":533:600   */\n      tag_100\n        /* \"#utility.yul\":597:599   */\n      0x20\n        /* \"#utility.yul\":592:595   */\n      dup4\n        /* \"#utility.yul\":533:600   */\n      tag_76\n      jump\t// in\n    tag_100:\n        /* \"#utility.yul\":526:600   */\n      swap2\n      pop\n        /* \"#utility.yul\":609:702   */\n      tag_101\n        /* \"#utility.yul\":698:701   */\n      dup3\n        /* \"#utility.yul\":609:702   */\n      tag_77\n      jump\t// in\n    tag_101:\n        /* \"#utility.yul\":727:729   */\n      0x20\n        /* \"#utility.yul\":722:725   */\n      dup3\n        /* \"#utility.yul\":718:730   */\n      add\n        /* \"#utility.yul\":711:730   */\n      swap1\n      pop\n        /* \"#utility.yul\":370:736   */\n      swap2\n      swap1\n      pop\n      jump\t// out\n        /* \"#utility.yul\":742:1161   */\n    tag_14:\n        /* \"#utility.yul\":908:912   */\n      0x00\n        /* \"#utility.yul\":946:948   */\n      0x20\n        /* \"#utility.yul\":935:944   */\n      dup3\n        /* \"#utility.yul\":931:949   */\n      add\n        /* \"#utility.yul\":923:949   */\n      swap1\n      pop\n        /* \"#utility.yul\":995:1004   */\n      dup2\n        /* \"#utility.yul\":989:993   */\n      dup2\n        /* \"#utility.yul\":985:1005   */\n      sub\n        /* \"#utility.yul\":981:982   */\n      0x00\n        /* \"#utility.yul\":970:979   */\n      dup4\n        /* \"#utility.yul\":966:983   */\n      add\n        /* \"#utility.yul\":959:1006   */\n      mstore\n        /* \"#utility.yul\":1023:1154   */\n      tag_103\n        /* \"#utility.yul\":1149:1153   */\n      dup2\n        /* \"#utility.yul\":1023:1154   */\n      tag_78\n      jump\t// in\n    tag_103:\n        /* \"#utility.yul\":1015:1154   */\n      swap1\n      pop\n        /* \"#utility.yul\":742:1161   */\n      swap2\n      swap1\n      pop\n      jump\t// out\n        /* \"#utility.yul\":1167:1341   */\n    tag_79:\n        /* \"#utility.yul\":1307:1333   */\n      0x46756e6374696f6e20646f6573206e6f742065786973742e0000000000000000\n        /* \"#utility.yul\":1303:1304   */\n      0x00\n        /* \"#utility.yul\":1295:1301   */\n      dup3\n        /* \"#utility.yul\":1291:1305   */\n      add\n        /* \"#utility.yul\":1284:1334   */\n      mstore\n        /* \"#utility.yul\":1167:1341   */\n      pop\n      jump\t// out\n        /* \"#utility.yul\":1347:1713   */\n    tag_80:\n        /* \"#utility.yul\":1489:1492   */\n      0x00\n        /* \"#utility.yul\":1510:1577   */\n      tag_106\n        /* \"#utility.yul\":1574:1576   */\n      0x18\n        /* \"#utility.yul\":1569:1572   */\n      dup4\n        /* \"#utility.yul\":1510:1577   */\n      tag_76\n      jump\t// in\n    tag_106:\n        /* \"#utility.yul\":1503:1577   */\n      swap2\n      pop\n        /* \"#utility.yul\":1586:1679   */\n      tag_107\n        /* \"#utility.yul\":1675:1678   */\n      dup3\n        /* \"#utility.yul\":1586:1679   */\n      tag_79\n      jump\t// in\n    tag_107:\n        /* \"#utility.yul\":1704:1706   */\n      0x20\n        /* \"#utility.yul\":1699:1702   */\n      dup3\n        /* \"#utility.yul\":1695:1707   */\n      add\n        /* \"#utility.yul\":1688:1707   */\n      swap1\n      pop\n        /* \"#utility.yul\":1347:1713   */\n      swap2\n      swap1\n      pop\n      jump\t// out\n        /* \"#utility.yul\":1719:2138   */\n    tag_18:\n        /* \"#utility.yul\":1885:1889   */\n      0x00\n        /* \"#utility.yul\":1923:1925   */\n      0x20\n        /* \"#utility.yul\":1912:1921   */\n      dup3\n        /* \"#utility.yul\":1908:1926   */\n      add\n        /* \"#utility.yul\":1900:1926   */\n      swap1\n      pop\n        /* \"#utility.yul\":1972:1981   */\n      dup2\n        /* \"#utility.yul\":1966:1970   */\n      dup2\n        /* \"#utility.yul\":1962:1982   */\n      sub\n        /* \"#utility.yul\":1958:1959   */\n      0x00\n        /* \"#utility.yul\":1947:1956   */\n      dup4\n        /* \"#utility.yul\":1943:1960   */\n      add\n        /* \"#utility.yul\":1936:1983   */\n      mstore\n        /* \"#utility.yul\":2000:2131   */\n      tag_109\n        /* \"#utility.yul\":2126:2130   */\n      dup2\n        /* \"#utility.yul\":2000:2131   */\n      tag_80\n      jump\t// in\n    tag_109:\n        /* \"#utility.yul\":1992:2131   */\n      swap1\n      pop\n        /* \"#utility.yul\":1719:2138   */\n      swap2\n      swap1\n      pop\n      jump\t// out\n        /* \"#utility.yul\":2144:2270   */\n    tag_81:\n        /* \"#utility.yul\":2181:2188   */\n      0x00\n        /* \"#utility.yul\":2221:2263   */\n      0xffffffffffffffffffffffffffffffffffffffff\n        /* \"#utility.yul\":2214:2219   */\n      dup3\n        /* \"#utility.yul\":2210:2264   */\n      and\n        /* \"#utility.yul\":2199:2264   */\n      swap1\n      pop\n        /* \"#utility.yul\":2144:2270   */\n      swap2\n      swap1\n      pop\n      jump\t// out\n        /* \"#utility.yul\":2276:2380   */\n    tag_82:\n        /* \"#utility.yul\":2321:2328   */\n      0x00\n        /* \"#utility.yul\":2350:2374   */\n      tag_112\n        /* \"#utility.yul\":2368:2373   */\n      dup3\n        /* \"#utility.yul\":2350:2374   */\n      tag_81\n      jump\t// in\n    tag_112:\n        /* \"#utility.yul\":2339:2374   */\n      swap1\n      pop\n        /* \"#utility.yul\":2276:2380   */\n      swap2\n      swap1\n      pop\n      jump\t// out\n        /* \"#utility.yul\":2386:2528   */\n    tag_83:\n        /* \"#utility.yul\":2489:2521   */\n      tag_114\n        /* \"#utility.yul\":2515:2520   */\n      dup2\n        /* \"#utility.yul\":2489:2521   */\n      tag_82\n      jump\t// in\n    tag_114:\n        /* \"#utility.yul\":2484:2487   */\n      dup3\n        /* \"#utility.yul\":2477:2522   */\n      mstore\n        /* \"#utility.yul\":2386:2528   */\n      pop\n      pop\n      jump\t// out\n        /* \"#utility.yul\":2534:2788   */\n    tag_28:\n        /* \"#utility.yul\":2643:2647   */\n      0x00\n        /* \"#utility.yul\":2681:2683   */\n      0x20\n        /* \"#utility.yul\":2670:2679   */\n      dup3\n        /* \"#utility.yul\":2666:2684   */\n      add\n        /* \"#utility.yul\":2658:2684   */\n      swap1\n      pop\n        /* \"#utility.yul\":2694:2781   */\n      tag_116\n        /* \"#utility.yul\":2778:2779   */\n      0x00\n        /* \"#utility.yul\":2767:2776   */\n      dup4\n        /* \"#utility.yul\":2763:2780   */\n      add\n        /* \"#utility.yul\":2754:2760   */\n      dup5\n        /* \"#utility.yul\":2694:2781   */\n      tag_83\n      jump\t// in\n    tag_116:\n        /* \"#utility.yul\":2534:2788   */\n      swap3\n      swap2\n      pop\n      pop\n      jump\t// out\n        /* \"#utility.yul\":2794:2884   */\n    tag_84:\n        /* \"#utility.yul\":2828:2835   */\n      0x00\n        /* \"#utility.yul\":2871:2876   */\n      dup2\n        /* \"#utility.yul\":2864:2877   */\n      iszero\n        /* \"#utility.yul\":2857:2878   */\n      iszero\n        /* \"#utility.yul\":2846:2878   */\n      swap1\n      pop\n        /* \"#utility.yul\":2794:2884   */\n      swap2\n      swap1\n      pop\n      jump\t// out\n        /* \"#utility.yul\":2890:2999   */\n    tag_85:\n        /* \"#utility.yul\":2971:2992   */\n      tag_119\n        /* \"#utility.yul\":2986:2991   */\n      dup2\n        /* \"#utility.yul\":2971:2992   */\n      tag_84\n      jump\t// in\n    tag_119:\n        /* \"#utility.yul\":2966:2969   */\n      dup3\n        /* \"#utility.yul\":2959:2993   */\n      mstore\n        /* \"#utility.yul\":2890:2999   */\n      pop\n      pop\n      jump\t// out\n        /* \"#utility.yul\":3005:3215   */\n    tag_33:\n        /* \"#utility.yul\":3092:3096   */\n      0x00\n        /* \"#utility.yul\":3130:3132   */\n      0x20\n        /* \"#utility.yul\":3119:3128   */\n      dup3\n        /* \"#utility.yul\":3115:3133   */\n      add\n        /* \"#utility.yul\":3107:3133   */\n      swap1\n      pop\n        /* \"#utility.yul\":3143:3208   */\n      tag_121\n        /* \"#utility.yul\":3205:3206   */\n      0x00\n        /* \"#utility.yul\":3194:3203   */\n      dup4\n        /* \"#utility.yul\":3190:3207   */\n      add\n        /* \"#utility.yul\":3181:3187   */\n      dup5\n        /* \"#utility.yul\":3143:3208   */\n      tag_85\n      jump\t// in\n    tag_121:\n        /* \"#utility.yul\":3005:3215   */\n      swap3\n      swap2\n      pop\n      pop\n      jump\t// out\n        /* \"#utility.yul\":3221:3298   */\n    tag_86:\n        /* \"#utility.yul\":3258:3265   */\n      0x00\n        /* \"#utility.yul\":3287:3292   */\n      dup2\n        /* \"#utility.yul\":3276:3292   */\n      swap1\n      pop\n        /* \"#utility.yul\":3221:3298   */\n      swap2\n      swap1\n      pop\n      jump\t// out\n        /* \"#utility.yul\":3304:3422   */\n    tag_87:\n        /* \"#utility.yul\":3391:3415   */\n      tag_124\n        /* \"#utility.yul\":3409:3414   */\n      dup2\n        /* \"#utility.yul\":3391:3415   */\n      tag_86\n      jump\t// in\n    tag_124:\n        /* \"#utility.yul\":3386:3389   */\n      dup3\n        /* \"#utility.yul\":3379:3416   */\n      mstore\n        /* \"#utility.yul\":3304:3422   */\n      pop\n      pop\n      jump\t// out\n        /* \"#utility.yul\":3428:3650   */\n    tag_38:\n        /* \"#utility.yul\":3521:3525   */\n      0x00\n        /* \"#utility.yul\":3559:3561   */\n      0x20\n        /* \"#utility.yul\":3548:3557   */\n      dup3\n        /* \"#utility.yul\":3544:3562   */\n      add\n        /* \"#utility.yul\":3536:3562   */\n      swap1\n      pop\n        /* \"#utility.yul\":3572:3643   */\n      tag_126\n        /* \"#utility.yul\":3640:3641   */\n      0x00\n        /* \"#utility.yul\":3629:3638   */\n      dup4\n        /* \"#utility.yul\":3625:3642   */\n      add\n        /* \"#utility.yul\":3616:3622   */\n      dup5\n        /* \"#utility.yul\":3572:3643   */\n      tag_87\n      jump\t// in\n    tag_126:\n        /* \"#utility.yul\":3428:3650   */\n      swap3\n      swap2\n      pop\n      pop\n      jump\t// out\n        /* \"#utility.yul\":3656:3752   */\n    tag_88:\n        /* \"#utility.yul\":3693:3700   */\n      0x00\n        /* \"#utility.yul\":3722:3746   */\n      tag_128\n        /* \"#utility.yul\":3740:3745   */\n      dup3\n        /* \"#utility.yul\":3722:3746   */\n      tag_81\n      jump\t// in\n    tag_128:\n        /* \"#utility.yul\":3711:3746   */\n      swap1\n      pop\n        /* \"#utility.yul\":3656:3752   */\n      swap2\n      swap1\n      pop\n      jump\t// out\n        /* \"#utility.yul\":3758:3876   */\n    tag_89:\n        /* \"#utility.yul\":3845:3869   */\n      tag_130\n        /* \"#utility.yul\":3863:3868   */\n      dup2\n        /* \"#utility.yul\":3845:3869   */\n      tag_88\n      jump\t// in\n    tag_130:\n        /* \"#utility.yul\":3840:3843   */\n      dup3\n        /* \"#utility.yul\":3833:3870   */\n      mstore\n        /* \"#utility.yul\":3758:3876   */\n      pop\n      pop\n      jump\t// out\n        /* \"#utility.yul\":3882:4104   */\n    tag_43:\n        /* \"#utility.yul\":3975:3979   */\n      0x00\n        /* \"#utility.yul\":4013:4015   */\n      0x20\n        /* \"#utility.yul\":4002:4011   */\n      dup3\n        /* \"#utility.yul\":3998:4016   */\n      add\n        /* \"#utility.yul\":3990:4016   */\n      swap1\n      pop\n        /* \"#utility.yul\":4026:4097   */\n      tag_132\n        /* \"#utility.yul\":4094:4095   */\n      0x00\n        /* \"#utility.yul\":4083:4092   */\n      dup4\n        /* \"#utility.yul\":4079:4096   */\n      add\n        /* \"#utility.yul\":4070:4076   */\n      dup5\n        /* \"#utility.yul\":4026:4097   */\n      tag_89\n      jump\t// in\n    tag_132:\n        /* \"#utility.yul\":3882:4104   */\n      swap3\n      swap2\n      pop\n      pop\n      jump\t// out\n        /* \"#utility.yul\":4110:4290   */\n    tag_90:\n        /* \"#utility.yul\":4158:4235   */\n      0x4e487b7100000000000000000000000000000000000000000000000000000000\n        /* \"#utility.yul\":4155:4156   */\n      0x00\n        /* \"#utility.yul\":4148:4236   */\n      mstore\n        /* \"#utility.yul\":4255:4259   */\n      0x11\n        /* \"#utility.yul\":4252:4253   */\n      0x04\n        /* \"#utility.yul\":4245:4260   */\n      mstore\n        /* \"#utility.yul\":4279:4283   */\n      0x24\n        /* \"#utility.yul\":4276:4277   */\n      0x00\n        /* \"#utility.yul\":4269:4284   */\n      revert\n        /* \"#utility.yul\":4296:4487   */\n    tag_54:\n        /* \"#utility.yul\":4336:4339   */\n      0x00\n        /* \"#utility.yul\":4355:4375   */\n      tag_135\n        /* \"#utility.yul\":4373:4374   */\n      dup3\n        /* \"#utility.yul\":4355:4375   */\n      tag_86\n      jump\t// in\n    tag_135:\n        /* \"#utility.yul\":4350:4375   */\n      swap2\n      pop\n        /* \"#utility.yul\":4389:4409   */\n      tag_136\n        /* \"#utility.yul\":4407:4408   */\n      dup4\n        /* \"#utility.yul\":4389:4409   */\n      tag_86\n      jump\t// in\n    tag_136:\n        /* \"#utility.yul\":4384:4409   */\n      swap3\n      pop\n        /* \"#utility.yul\":4432:4433   */\n      dup3\n        /* \"#utility.yul\":4429:4430   */\n      dup3\n        /* \"#utility.yul\":4425:4434   */\n      add\n        /* \"#utility.yul\":4418:4434   */\n      swap1\n      pop\n        /* \"#utility.yul\":4453:4456   */\n      dup1\n        /* \"#utility.yul\":4450:4451   */\n      dup3\n        /* \"#utility.yul\":4447:4457   */\n      gt\n        /* \"#utility.yul\":4444:4480   */\n      iszero\n      tag_137\n      jumpi\n        /* \"#utility.yul\":4460:4478   */\n      tag_138\n      tag_90\n      jump\t// in\n    tag_138:\n        /* \"#utility.yul\":4444:4480   */\n    tag_137:\n        /* \"#utility.yul\":4296:4487   */\n      swap3\n      swap2\n      pop\n      pop\n      jump\t// out\n        /* \"#utility.yul\":4493:4825   */\n    tag_56:\n        /* \"#utility.yul\":4614:4618   */\n      0x00\n        /* \"#utility.yul\":4652:4654   */\n      0x40\n        /* \"#utility.yul\":4641:4650   */\n      dup3\n        /* \"#utility.yul\":4637:4655   */\n      add\n        /* \"#utility.yul\":4629:4655   */\n      swap1\n      pop\n        /* \"#utility.yul\":4665:4736   */\n      tag_140\n        /* \"#utility.yul\":4733:4734   */\n      0x00\n        /* \"#utility.yul\":4722:4731   */\n      dup4\n        /* \"#utility.yul\":4718:4735   */\n      add\n        /* \"#utility.yul\":4709:4715   */\n      dup6\n        /* \"#utility.yul\":4665:4736   */\n      tag_89\n      jump\t// in\n    tag_140:\n        /* \"#utility.yul\":4746:4818   */\n      tag_141\n        /* \"#utility.yul\":4814:4816   */\n      0x20\n        /* \"#utility.yul\":4803:4812   */\n      dup4\n        /* \"#utility.yul\":4799:4817   */\n      add\n        /* \"#utility.yul\":4790:4796   */\n      dup5\n        /* \"#utility.yul\":4746:4818   */\n      tag_87\n      jump\t// in\n    tag_141:\n        /* \"#utility.yul\":4493:4825   */\n      swap4\n      swap3\n      pop\n      pop\n      pop\n      jump\t// out\n        /* \"#utility.yul\":4831:4978   */\n    tag_91:\n        /* \"#utility.yul\":4932:4943   */\n      0x00\n        /* \"#utility.yul\":4969:4972   */\n      dup2\n        /* \"#utility.yul\":4954:4972   */\n      swap1\n      pop\n        /* \"#utility.yul\":4831:4978   */\n      swap3\n      swap2\n      pop\n      pop\n      jump\t// out\n        /* \"#utility.yul\":4984:5098   */\n    tag_92:\n      pop\n      jump\t// out\n        /* \"#utility.yul\":5104:5502   */\n    tag_93:\n        /* \"#utility.yul\":5263:5266   */\n      0x00\n        /* \"#utility.yul\":5284:5367   */\n      tag_145\n        /* \"#utility.yul\":5365:5366   */\n      0x00\n        /* \"#utility.yul\":5360:5363   */\n      dup4\n        /* \"#utility.yul\":5284:5367   */\n      tag_91\n      jump\t// in\n    tag_145:\n        /* \"#utility.yul\":5277:5367   */\n      swap2\n      pop\n        /* \"#utility.yul\":5376:5469   */\n      tag_146\n        /* \"#utility.yul\":5465:5468   */\n      dup3\n        /* \"#utility.yul\":5376:5469   */\n      tag_92\n      jump\t// in\n    tag_146:\n        /* \"#utility.yul\":5494:5495   */\n      0x00\n        /* \"#utility.yul\":5489:5492   */\n      dup3\n        /* \"#utility.yul\":5485:5496   */\n      add\n        /* \"#utility.yul\":5478:5496   */\n      swap1\n      pop\n        /* \"#utility.yul\":5104:5502   */\n      swap2\n      swap1\n      pop\n      jump\t// out\n        /* \"#utility.yul\":5508:5887   */\n    tag_62:\n        /* \"#utility.yul\":5692:5695   */\n      0x00\n        /* \"#utility.yul\":5714:5861   */\n      tag_148\n        /* \"#utility.yul\":5857:5860   */\n      dup3\n        /* \"#utility.yul\":5714:5861   */\n      tag_93\n      jump\t// in\n    tag_148:\n        /* \"#utility.yul\":5707:5861   */\n      swap2\n      pop\n        /* \"#utility.yul\":5878:5881   */\n      dup2\n        /* \"#utility.yul\":5871:5881   */\n      swap1\n      pop\n        /* \"#utility.yul\":5508:5887   */\n      swap2\n      swap1\n      pop\n      jump\t// out\n        /* \"#utility.yul\":5893:6059   */\n    tag_94:\n        /* \"#utility.yul\":6033:6051   */\n      0x5472616e73666572206661696c65642e00000000000000000000000000000000\n        /* \"#utility.yul\":6029:6030   */\n      0x00\n        /* \"#utility.yul\":6021:6027   */\n      dup3\n        /* \"#utility.yul\":6017:6031   */\n      add\n        /* \"#utility.yul\":6010:6052   */\n      mstore\n        /* \"#utility.yul\":5893:6059   */\n      pop\n      jump\t// out\n        /* \"#utility.yul\":6065:6431   */\n    tag_95:\n        /* \"#utility.yul\":6207:6210   */\n      0x00\n        /* \"#utility.yul\":6228:6295   */\n      tag_151\n        /* \"#utility.yul\":6292:6294   */\n      0x10\n        /* \"#utility.yul\":6287:6290   */\n      dup4\n        /* \"#utility.yul\":6228:6295   */\n      tag_76\n      jump\t// in\n    tag_151:\n        /* \"#utility.yul\":6221:6295   */\n      swap2\n      pop\n        /* \"#utility.yul\":6304:6397   */\n      tag_152\n        /* \"#utility.yul\":6393:6396   */\n      dup3\n        /* \"#utility.yul\":6304:6397   */\n      tag_94\n      jump\t// in\n    tag_152:\n        /* \"#utility.yul\":6422:6424   */\n      0x20\n        /* \"#utility.yul\":6417:6420   */\n      dup3\n        /* \"#utility.yul\":6413:6425   */\n      add\n        /* \"#utility.yul\":6406:6425   */\n      swap1\n      pop\n        /* \"#utility.yul\":6065:6431   */\n      swap2\n      swap1\n      pop\n      jump\t// out\n        /* \"#utility.yul\":6437:6856   */\n    tag_68:\n        /* \"#utility.yul\":6603:6607   */\n      0x00\n        /* \"#utility.yul\":6641:6643   */\n      0x20\n        /* \"#utility.yul\":6630:6639   */\n      dup3\n        /* \"#utility.yul\":6626:6644   */\n      add\n        /* \"#utility.yul\":6618:6644   */\n      swap1\n      pop\n        /* \"#utility.yul\":6690:6699   */\n      dup2\n        /* \"#utility.yul\":6684:6688   */\n      dup2\n        /* \"#utility.yul\":6680:6700   */\n      sub\n        /* \"#utility.yul\":6676:6677   */\n      0x00\n        /* \"#utility.yul\":6665:6674   */\n      dup4\n        /* \"#utility.yul\":6661:6678   */\n      add\n        /* \"#utility.yul\":6654:6701   */\n      mstore\n        /* \"#utility.yul\":6718:6849   */\n      tag_154\n        /* \"#utility.yul\":6844:6848   */\n      dup2\n        /* \"#utility.yul\":6718:6849   */\n      tag_95\n      jump\t// in\n    tag_154:\n        /* \"#utility.yul\":6710:6849   */\n      swap1\n      pop\n        /* \"#utility.yul\":6437:6856   */\n      swap2\n      swap1\n      pop\n      jump\t// out\n\n    auxdata: 0xa26469706673582212204f2aa7c4a14c5c2dd13c0ffc75bd8a30d1a0cd6e5f061619771a67e4fc1276dd64736f6c63430008180033\n}\n",
				"bytecode": {
					"linkReferences": {},
					"object": "608060405234801562000010575f80fd5b5060405162000bf238038062000bf283398181016040528101906200003691906200012e565b805f806101000a81548173ffffffffffffffffffffffffffffffffffffffff021916908373ffffffffffffffffffffffffffffffffffffffff1602179055508142620000839190620001a0565b6001819055505050620001da565b5f80fd5b5f819050919050565b620000a98162000095565b8114620000b4575f80fd5b50565b5f81519050620000c7816200009e565b92915050565b5f73ffffffffffffffffffffffffffffffffffffffff82169050919050565b5f620000f882620000cd565b9050919050565b6200010a81620000ec565b811462000115575f80fd5b50565b5f815190506200012881620000ff565b92915050565b5f806040838503121562000147576200014662000091565b5b5f6200015685828601620000b7565b9250506020620001698582860162000118565b9150509250929050565b7f4e487b71000000000000000000000000000000000000000000000000000000005f52601160045260245ffd5b5f620001ac8262000095565b9150620001b98362000095565b9250828201905080821115620001d457620001d362000173565b5b92915050565b610a0a80620001e85f395ff3fe608060405260043610610073575f3560e01c80633ccfd60b1161004d5780633ccfd60b146101385780634b449cba1461016257806391f901571461018c578063d57bde79146101b6576100b3565b80631998aeef146100ee5780632a24f46c146100f857806338af3eed1461010e576100b3565b366100b3576040517f08c379a00000000000000000000000000000000000000000000000000000000081526004016100aa90610729565b60405180910390fd5b6040517f08c379a00000000000000000000000000000000000000000000000000000000081526004016100e590610791565b60405180910390fd5b6100f66101e0565b005b348015610103575f80fd5b5061010c610366565b005b348015610119575f80fd5b5061012261052b565b60405161012f91906107ee565b60405180910390f35b348015610143575f80fd5b5061014c61054e565b6040516101599190610821565b60405180910390f35b34801561016d575f80fd5b5061017661069e565b6040516101839190610852565b60405180910390f35b348015610197575f80fd5b506101a06106a4565b6040516101ad919061088b565b60405180910390f35b3480156101c1575f80fd5b506101ca6106c9565b6040516101d79190610852565b60405180910390f35b60015442111561021c576040517fd02e774d00000000000000000000000000000000000000000000000000000000815260040160405180910390fd5b6003543411610264576003546040517f4e12c1bb00000000000000000000000000000000000000000000000000000000815260040161025b9190610852565b60405180910390fd5b5f600354146102e45760035460045f60025f9054906101000a900473ffffffffffffffffffffffffffffffffffffffff1673ffffffffffffffffffffffffffffffffffffffff1673ffffffffffffffffffffffffffffffffffffffff1681526020019081526020015f205f8282546102dc91906108d1565b925050819055505b3360025f6101000a81548173ffffffffffffffffffffffffffffffffffffffff021916908373ffffffffffffffffffffffffffffffffffffffff160217905550346003819055507ff4757a49b326036464bec6fe419a4ae38c8a02ce3e68bf0809674f6aab8ad300333460405161035c929190610904565b60405180910390a1565b6001544210156103a2576040517f44cee29000000000000000000000000000000000000000000000000000000000815260040160405180910390fd5b60055f9054906101000a900460ff16156103e8576040517f61cfdcf800000000000000000000000000000000000000000000000000000000815260040160405180910390fd5b600160055f6101000a81548160ff0219169083151502179055507fdaec4582d5d9595688c8c98545fdd1c696d41c6aeaeb636737e84ed2f5c00eda60025f9054906101000a900473ffffffffffffffffffffffffffffffffffffffff16600354604051610456929190610904565b60405180910390a15f805f9054906101000a900473ffffffffffffffffffffffffffffffffffffffff1673ffffffffffffffffffffffffffffffffffffffff166003546040516104a590610958565b5f6040518083038185875af1925050503d805f81146104df576040519150601f19603f3d011682016040523d82523d5f602084013e6104e4565b606091505b5050905080610528576040517f08c379a000000000000000000000000000000000000000000000000000000000815260040161051f906109b6565b60405180910390fd5b50565b5f8054906101000a900473ffffffffffffffffffffffffffffffffffffffff1681565b5f8060045f3373ffffffffffffffffffffffffffffffffffffffff1673ffffffffffffffffffffffffffffffffffffffff1681526020019081526020015f205490505f811115610695575f60045f3373ffffffffffffffffffffffffffffffffffffffff1673ffffffffffffffffffffffffffffffffffffffff1681526020019081526020015f20819055505f3373ffffffffffffffffffffffffffffffffffffffff16826040516105ff90610958565b5f6040518083038185875af1925050503d805f8114610639576040519150601f19603f3d011682016040523d82523d5f602084013e61063e565b606091505b5050905080610693578160045f3373ffffffffffffffffffffffffffffffffffffffff1673ffffffffffffffffffffffffffffffffffffffff1681526020019081526020015f20819055505f9250505061069b565b505b60019150505b90565b60015481565b60025f9054906101000a900473ffffffffffffffffffffffffffffffffffffffff1681565b60035481565b5f82825260208201905092915050565b7f44697265637420455448207472616e73666572206e6f7420616c6c6f7765642e5f82015250565b5f6107136020836106cf565b915061071e826106df565b602082019050919050565b5f6020820190508181035f83015261074081610707565b9050919050565b7f46756e6374696f6e20646f6573206e6f742065786973742e00000000000000005f82015250565b5f61077b6018836106cf565b915061078682610747565b602082019050919050565b5f6020820190508181035f8301526107a88161076f565b9050919050565b5f73ffffffffffffffffffffffffffffffffffffffff82169050919050565b5f6107d8826107af565b9050919050565b6107e8816107ce565b82525050565b5f6020820190506108015f8301846107df565b92915050565b5f8115159050919050565b61081b81610807565b82525050565b5f6020820190506108345f830184610812565b92915050565b5f819050919050565b61084c8161083a565b82525050565b5f6020820190506108655f830184610843565b92915050565b5f610875826107af565b9050919050565b6108858161086b565b82525050565b5f60208201905061089e5f83018461087c565b92915050565b7f4e487b71000000000000000000000000000000000000000000000000000000005f52601160045260245ffd5b5f6108db8261083a565b91506108e68361083a565b92508282019050808211156108fe576108fd6108a4565b5b92915050565b5f6040820190506109175f83018561087c565b6109246020830184610843565b9392505050565b5f81905092915050565b50565b5f6109435f8361092b565b915061094e82610935565b5f82019050919050565b5f61096282610938565b9150819050919050565b7f5472616e73666572206661696c65642e000000000000000000000000000000005f82015250565b5f6109a06010836106cf565b91506109ab8261096c565b602082019050919050565b5f6020820190508181035f8301526109cd81610994565b905091905056fea26469706673582212204f2aa7c4a14c5c2dd13c0ffc75bd8a30d1a0cd6e5f061619771a67e4fc1276dd64736f6c63430008180033",
					"opcodes": "PUSH1 0x80 PUSH1 0x40 MSTORE CALLVALUE DUP1 ISZERO PUSH3 0x10 JUMPI PUSH0 DUP1 REVERT JUMPDEST POP PUSH1 0x40 MLOAD PUSH3 0xBF2 CODESIZE SUB DUP1 PUSH3 0xBF2 DUP4 CODECOPY DUP2 DUP2 ADD PUSH1 0x40 MSTORE DUP2 ADD SWAP1 PUSH3 0x36 SWAP2 SWAP1 PUSH3 0x12E JUMP JUMPDEST DUP1 PUSH0 DUP1 PUSH2 0x100 EXP DUP2 SLOAD DUP2 PUSH20 0xFFFFFFFFFFFFFFFFFFFFFFFFFFFFFFFFFFFFFFFF MUL NOT AND SWAP1 DUP4 PUSH20 0xFFFFFFFFFFFFFFFFFFFFFFFFFFFFFFFFFFFFFFFF AND MUL OR SWAP1 SSTORE POP DUP2 TIMESTAMP PUSH3 0x83 SWAP2 SWAP1 PUSH3 0x1A0 JUMP JUMPDEST PUSH1 0x1 DUP2 SWAP1 SSTORE POP POP POP PUSH3 0x1DA JUMP JUMPDEST PUSH0 DUP1 REVERT JUMPDEST PUSH0 DUP2 SWAP1 POP SWAP2 SWAP1 POP JUMP JUMPDEST PUSH3 0xA9 DUP2 PUSH3 0x95 JUMP JUMPDEST DUP2 EQ PUSH3 0xB4 JUMPI PUSH0 DUP1 REVERT JUMPDEST POP JUMP JUMPDEST PUSH0 DUP2 MLOAD SWAP1 POP PUSH3 0xC7 DUP2 PUSH3 0x9E JUMP JUMPDEST SWAP3 SWAP2 POP POP JUMP JUMPDEST PUSH0 PUSH20 0xFFFFFFFFFFFFFFFFFFFFFFFFFFFFFFFFFFFFFFFF DUP3 AND SWAP1 POP SWAP2 SWAP1 POP JUMP JUMPDEST PUSH0 PUSH3 0xF8 DUP3 PUSH3 0xCD JUMP JUMPDEST SWAP1 POP SWAP2 SWAP1 POP JUMP JUMPDEST PUSH3 0x10A DUP2 PUSH3 0xEC JUMP JUMPDEST DUP2 EQ PUSH3 0x115 JUMPI PUSH0 DUP1 REVERT JUMPDEST POP JUMP JUMPDEST PUSH0 DUP2 MLOAD SWAP1 POP PUSH3 0x128 DUP2 PUSH3 0xFF JUMP JUMPDEST SWAP3 SWAP2 POP POP JUMP JUMPDEST PUSH0 DUP1 PUSH1 0x40 DUP4 DUP6 SUB SLT ISZERO PUSH3 0x147 JUMPI PUSH3 0x146 PUSH3 0x91 JUMP JUMPDEST JUMPDEST PUSH0 PUSH3 0x156 DUP6 DUP3 DUP7 ADD PUSH3 0xB7 JUMP JUMPDEST SWAP3 POP POP PUSH1 0x20 PUSH3 0x169 DUP6 DUP3 DUP7 ADD PUSH3 0x118 JUMP JUMPDEST SWAP2 POP POP SWAP3 POP SWAP3 SWAP1 POP JUMP JUMPDEST PUSH32 0x4E487B7100000000000000000000000000000000000000000000000000000000 PUSH0 MSTORE PUSH1 0x11 PUSH1 0x4 MSTORE PUSH1 0x24 PUSH0 REVERT JUMPDEST PUSH0 PUSH3 0x1AC DUP3 PUSH3 0x95 JUMP JUMPDEST SWAP2 POP PUSH3 0x1B9 DUP4 PUSH3 0x95 JUMP JUMPDEST SWAP3 POP DUP3 DUP3 ADD SWAP1 POP DUP1 DUP3 GT ISZERO PUSH3 0x1D4 JUMPI PUSH3 0x1D3 PUSH3 0x173 JUMP JUMPDEST JUMPDEST SWAP3 SWAP2 POP POP JUMP JUMPDEST PUSH2 0xA0A DUP1 PUSH3 0x1E8 PUSH0 CODECOPY PUSH0 RETURN INVALID PUSH1 0x80 PUSH1 0x40 MSTORE PUSH1 0x4 CALLDATASIZE LT PUSH2 0x73 JUMPI PUSH0 CALLDATALOAD PUSH1 0xE0 SHR DUP1 PUSH4 0x3CCFD60B GT PUSH2 0x4D JUMPI DUP1 PUSH4 0x3CCFD60B EQ PUSH2 0x138 JUMPI DUP1 PUSH4 0x4B449CBA EQ PUSH2 0x162 JUMPI DUP1 PUSH4 0x91F90157 EQ PUSH2 0x18C JUMPI DUP1 PUSH4 0xD57BDE79 EQ PUSH2 0x1B6 JUMPI PUSH2 0xB3 JUMP JUMPDEST DUP1 PUSH4 0x1998AEEF EQ PUSH2 0xEE JUMPI DUP1 PUSH4 0x2A24F46C EQ PUSH2 0xF8 JUMPI DUP1 PUSH4 0x38AF3EED EQ PUSH2 0x10E JUMPI PUSH2 0xB3 JUMP JUMPDEST CALLDATASIZE PUSH2 0xB3 JUMPI PUSH1 0x40 MLOAD PUSH32 0x8C379A000000000000000000000000000000000000000000000000000000000 DUP2 MSTORE PUSH1 0x4 ADD PUSH2 0xAA SWAP1 PUSH2 0x729 JUMP JUMPDEST PUSH1 0x40 MLOAD DUP1 SWAP2 SUB SWAP1 REVERT JUMPDEST PUSH1 0x40 MLOAD PUSH32 0x8C379A000000000000000000000000000000000000000000000000000000000 DUP2 MSTORE PUSH1 0x4 ADD PUSH2 0xE5 SWAP1 PUSH2 0x791 JUMP JUMPDEST PUSH1 0x40 MLOAD DUP1 SWAP2 SUB SWAP1 REVERT JUMPDEST PUSH2 0xF6 PUSH2 0x1E0 JUMP JUMPDEST STOP JUMPDEST CALLVALUE DUP1 ISZERO PUSH2 0x103 JUMPI PUSH0 DUP1 REVERT JUMPDEST POP PUSH2 0x10C PUSH2 0x366 JUMP JUMPDEST STOP JUMPDEST CALLVALUE DUP1 ISZERO PUSH2 0x119 JUMPI PUSH0 DUP1 REVERT JUMPDEST POP PUSH2 0x122 PUSH2 0x52B JUMP JUMPDEST PUSH1 0x40 MLOAD PUSH2 0x12F SWAP2 SWAP1 PUSH2 0x7EE JUMP JUMPDEST PUSH1 0x40 MLOAD DUP1 SWAP2 SUB SWAP1 RETURN JUMPDEST CALLVALUE DUP1 ISZERO PUSH2 0x143 JUMPI PUSH0 DUP1 REVERT JUMPDEST POP PUSH2 0x14C PUSH2 0x54E JUMP JUMPDEST PUSH1 0x40 MLOAD PUSH2 0x159 SWAP2 SWAP1 PUSH2 0x821 JUMP JUMPDEST PUSH1 0x40 MLOAD DUP1 SWAP2 SUB SWAP1 RETURN JUMPDEST CALLVALUE DUP1 ISZERO PUSH2 0x16D JUMPI PUSH0 DUP1 REVERT JUMPDEST POP PUSH2 0x176 PUSH2 0x69E JUMP JUMPDEST PUSH1 0x40 MLOAD PUSH2 0x183 SWAP2 SWAP1 PUSH2 0x852 JUMP JUMPDEST PUSH1 0x40 MLOAD DUP1 SWAP2 SUB SWAP1 RETURN JUMPDEST CALLVALUE DUP1 ISZERO PUSH2 0x197 JUMPI PUSH0 DUP1 REVERT JUMPDEST POP PUSH2 0x1A0 PUSH2 0x6A4 JUMP JUMPDEST PUSH1 0x40 MLOAD PUSH2 0x1AD SWAP2 SWAP1 PUSH2 0x88B JUMP JUMPDEST PUSH1 0x40 MLOAD DUP1 SWAP2 SUB SWAP1 RETURN JUMPDEST CALLVALUE DUP1 ISZERO PUSH2 0x1C1 JUMPI PUSH0 DUP1 REVERT JUMPDEST POP PUSH2 0x1CA PUSH2 0x6C9 JUMP JUMPDEST PUSH1 0x40 MLOAD PUSH2 0x1D7 SWAP2 SWAP1 PUSH2 0x852 JUMP JUMPDEST PUSH1 0x40 MLOAD DUP1 SWAP2 SUB SWAP1 RETURN JUMPDEST PUSH1 0x1 SLOAD TIMESTAMP GT ISZERO PUSH2 0x21C JUMPI PUSH1 0x40 MLOAD PUSH32 0xD02E774D00000000000000000000000000000000000000000000000000000000 DUP2 MSTORE PUSH1 0x4 ADD PUSH1 0x40 MLOAD DUP1 SWAP2 SUB SWAP1 REVERT JUMPDEST PUSH1 0x3 SLOAD CALLVALUE GT PUSH2 0x264 JUMPI PUSH1 0x3 SLOAD PUSH1 0x40 MLOAD PUSH32 0x4E12C1BB00000000000000000000000000000000000000000000000000000000 DUP2 MSTORE PUSH1 0x4 ADD PUSH2 0x25B SWAP2 SWAP1 PUSH2 0x852 JUMP JUMPDEST PUSH1 0x40 MLOAD DUP1 SWAP2 SUB SWAP1 REVERT JUMPDEST PUSH0 PUSH1 0x3 SLOAD EQ PUSH2 0x2E4 JUMPI PUSH1 0x3 SLOAD PUSH1 0x4 PUSH0 PUSH1 0x2 PUSH0 SWAP1 SLOAD SWAP1 PUSH2 0x100 EXP SWAP1 DIV PUSH20 0xFFFFFFFFFFFFFFFFFFFFFFFFFFFFFFFFFFFFFFFF AND PUSH20 0xFFFFFFFFFFFFFFFFFFFFFFFFFFFFFFFFFFFFFFFF AND PUSH20 0xFFFFFFFFFFFFFFFFFFFFFFFFFFFFFFFFFFFFFFFF AND DUP2 MSTORE PUSH1 0x20 ADD SWAP1 DUP2 MSTORE PUSH1 0x20 ADD PUSH0 KECCAK256 PUSH0 DUP3 DUP3 SLOAD PUSH2 0x2DC SWAP2 SWAP1 PUSH2 0x8D1 JUMP JUMPDEST SWAP3 POP POP DUP2 SWAP1 SSTORE POP JUMPDEST CALLER PUSH1 0x2 PUSH0 PUSH2 0x100 EXP DUP2 SLOAD DUP2 PUSH20 0xFFFFFFFFFFFFFFFFFFFFFFFFFFFFFFFFFFFFFFFF MUL NOT AND SWAP1 DUP4 PUSH20 0xFFFFFFFFFFFFFFFFFFFFFFFFFFFFFFFFFFFFFFFF AND MUL OR SWAP1 SSTORE POP CALLVALUE PUSH1 0x3 DUP2 SWAP1 SSTORE POP PUSH32 0xF4757A49B326036464BEC6FE419A4AE38C8A02CE3E68BF0809674F6AAB8AD300 CALLER CALLVALUE PUSH1 0x40 MLOAD PUSH2 0x35C SWAP3 SWAP2 SWAP1 PUSH2 0x904 JUMP JUMPDEST PUSH1 0x40 MLOAD DUP1 SWAP2 SUB SWAP1 LOG1 JUMP JUMPDEST PUSH1 0x1 SLOAD TIMESTAMP LT ISZERO PUSH2 0x3A2 JUMPI PUSH1 0x40 MLOAD PUSH32 0x44CEE29000000000000000000000000000000000000000000000000000000000 DUP2 MSTORE PUSH1 0x4 ADD PUSH1 0x40 MLOAD DUP1 SWAP2 SUB SWAP1 REVERT JUMPDEST PUSH1 0x5 PUSH0 SWAP1 SLOAD SWAP1 PUSH2 0x100 EXP SWAP1 DIV PUSH1 0xFF AND ISZERO PUSH2 0x3E8 JUMPI PUSH1 0x40 MLOAD PUSH32 0x61CFDCF800000000000000000000000000000000000000000000000000000000 DUP2 MSTORE PUSH1 0x4 ADD PUSH1 0x40 MLOAD DUP1 SWAP2 SUB SWAP1 REVERT JUMPDEST PUSH1 0x1 PUSH1 0x5 PUSH0 PUSH2 0x100 EXP DUP2 SLOAD DUP2 PUSH1 0xFF MUL NOT AND SWAP1 DUP4 ISZERO ISZERO MUL OR SWAP1 SSTORE POP PUSH32 0xDAEC4582D5D9595688C8C98545FDD1C696D41C6AEAEB636737E84ED2F5C00EDA PUSH1 0x2 PUSH0 SWAP1 SLOAD SWAP1 PUSH2 0x100 EXP SWAP1 DIV PUSH20 0xFFFFFFFFFFFFFFFFFFFFFFFFFFFFFFFFFFFFFFFF AND PUSH1 0x3 SLOAD PUSH1 0x40 MLOAD PUSH2 0x456 SWAP3 SWAP2 SWAP1 PUSH2 0x904 JUMP JUMPDEST PUSH1 0x40 MLOAD DUP1 SWAP2 SUB SWAP1 LOG1 PUSH0 DUP1 PUSH0 SWAP1 SLOAD SWAP1 PUSH2 0x100 EXP SWAP1 DIV PUSH20 0xFFFFFFFFFFFFFFFFFFFFFFFFFFFFFFFFFFFFFFFF AND PUSH20 0xFFFFFFFFFFFFFFFFFFFFFFFFFFFFFFFFFFFFFFFF AND PUSH1 0x3 SLOAD PUSH1 0x40 MLOAD PUSH2 0x4A5 SWAP1 PUSH2 0x958 JUMP JUMPDEST PUSH0 PUSH1 0x40 MLOAD DUP1 DUP4 SUB DUP2 DUP6 DUP8 GAS CALL SWAP3 POP POP POP RETURNDATASIZE DUP1 PUSH0 DUP2 EQ PUSH2 0x4DF JUMPI PUSH1 0x40 MLOAD SWAP2 POP PUSH1 0x1F NOT PUSH1 0x3F RETURNDATASIZE ADD AND DUP3 ADD PUSH1 0x40 MSTORE RETURNDATASIZE DUP3 MSTORE RETURNDATASIZE PUSH0 PUSH1 0x20 DUP5 ADD RETURNDATACOPY PUSH2 0x4E4 JUMP JUMPDEST PUSH1 0x60 SWAP2 POP JUMPDEST POP POP SWAP1 POP DUP1 PUSH2 0x528 JUMPI PUSH1 0x40 MLOAD PUSH32 0x8C379A000000000000000000000000000000000000000000000000000000000 DUP2 MSTORE PUSH1 0x4 ADD PUSH2 0x51F SWAP1 PUSH2 0x9B6 JUMP JUMPDEST PUSH1 0x40 MLOAD DUP1 SWAP2 SUB SWAP1 REVERT JUMPDEST POP JUMP JUMPDEST PUSH0 DUP1 SLOAD SWAP1 PUSH2 0x100 EXP SWAP1 DIV PUSH20 0xFFFFFFFFFFFFFFFFFFFFFFFFFFFFFFFFFFFFFFFF AND DUP2 JUMP JUMPDEST PUSH0 DUP1 PUSH1 0x4 PUSH0 CALLER PUSH20 0xFFFFFFFFFFFFFFFFFFFFFFFFFFFFFFFFFFFFFFFF AND PUSH20 0xFFFFFFFFFFFFFFFFFFFFFFFFFFFFFFFFFFFFFFFF AND DUP2 MSTORE PUSH1 0x20 ADD SWAP1 DUP2 MSTORE PUSH1 0x20 ADD PUSH0 KECCAK256 SLOAD SWAP1 POP PUSH0 DUP2 GT ISZERO PUSH2 0x695 JUMPI PUSH0 PUSH1 0x4 PUSH0 CALLER PUSH20 0xFFFFFFFFFFFFFFFFFFFFFFFFFFFFFFFFFFFFFFFF AND PUSH20 0xFFFFFFFFFFFFFFFFFFFFFFFFFFFFFFFFFFFFFFFF AND DUP2 MSTORE PUSH1 0x20 ADD SWAP1 DUP2 MSTORE PUSH1 0x20 ADD PUSH0 KECCAK256 DUP2 SWAP1 SSTORE POP PUSH0 CALLER PUSH20 0xFFFFFFFFFFFFFFFFFFFFFFFFFFFFFFFFFFFFFFFF AND DUP3 PUSH1 0x40 MLOAD PUSH2 0x5FF SWAP1 PUSH2 0x958 JUMP JUMPDEST PUSH0 PUSH1 0x40 MLOAD DUP1 DUP4 SUB DUP2 DUP6 DUP8 GAS CALL SWAP3 POP POP POP RETURNDATASIZE DUP1 PUSH0 DUP2 EQ PUSH2 0x639 JUMPI PUSH1 0x40 MLOAD SWAP2 POP PUSH1 0x1F NOT PUSH1 0x3F RETURNDATASIZE ADD AND DUP3 ADD PUSH1 0x40 MSTORE RETURNDATASIZE DUP3 MSTORE RETURNDATASIZE PUSH0 PUSH1 0x20 DUP5 ADD RETURNDATACOPY PUSH2 0x63E JUMP JUMPDEST PUSH1 0x60 SWAP2 POP JUMPDEST POP POP SWAP1 POP DUP1 PUSH2 0x693 JUMPI DUP2 PUSH1 0x4 PUSH0 CALLER PUSH20 0xFFFFFFFFFFFFFFFFFFFFFFFFFFFFFFFFFFFFFFFF AND PUSH20 0xFFFFFFFFFFFFFFFFFFFFFFFFFFFFFFFFFFFFFFFF AND DUP2 MSTORE PUSH1 0x20 ADD SWAP1 DUP2 MSTORE PUSH1 0x20 ADD PUSH0 KECCAK256 DUP2 SWAP1 SSTORE POP PUSH0 SWAP3 POP POP POP PUSH2 0x69B JUMP JUMPDEST POP JUMPDEST PUSH1 0x1 SWAP2 POP POP JUMPDEST SWAP1 JUMP JUMPDEST PUSH1 0x1 SLOAD DUP2 JUMP JUMPDEST PUSH1 0x2 PUSH0 SWAP1 SLOAD SWAP1 PUSH2 0x100 EXP SWAP1 DIV PUSH20 0xFFFFFFFFFFFFFFFFFFFFFFFFFFFFFFFFFFFFFFFF AND DUP2 JUMP JUMPDEST PUSH1 0x3 SLOAD DUP2 JUMP JUMPDEST PUSH0 DUP3 DUP3 MSTORE PUSH1 0x20 DUP3 ADD SWAP1 POP SWAP3 SWAP2 POP POP JUMP JUMPDEST PUSH32 0x44697265637420455448207472616E73666572206E6F7420616C6C6F7765642E PUSH0 DUP3 ADD MSTORE POP JUMP JUMPDEST PUSH0 PUSH2 0x713 PUSH1 0x20 DUP4 PUSH2 0x6CF JUMP JUMPDEST SWAP2 POP PUSH2 0x71E DUP3 PUSH2 0x6DF JUMP JUMPDEST PUSH1 0x20 DUP3 ADD SWAP1 POP SWAP2 SWAP1 POP JUMP JUMPDEST PUSH0 PUSH1 0x20 DUP3 ADD SWAP1 POP DUP2 DUP2 SUB PUSH0 DUP4 ADD MSTORE PUSH2 0x740 DUP2 PUSH2 0x707 JUMP JUMPDEST SWAP1 POP SWAP2 SWAP1 POP JUMP JUMPDEST PUSH32 0x46756E6374696F6E20646F6573206E6F742065786973742E0000000000000000 PUSH0 DUP3 ADD MSTORE POP JUMP JUMPDEST PUSH0 PUSH2 0x77B PUSH1 0x18 DUP4 PUSH2 0x6CF JUMP JUMPDEST SWAP2 POP PUSH2 0x786 DUP3 PUSH2 0x747 JUMP JUMPDEST PUSH1 0x20 DUP3 ADD SWAP1 POP SWAP2 SWAP1 POP JUMP JUMPDEST PUSH0 PUSH1 0x20 DUP3 ADD SWAP1 POP DUP2 DUP2 SUB PUSH0 DUP4 ADD MSTORE PUSH2 0x7A8 DUP2 PUSH2 0x76F JUMP JUMPDEST SWAP1 POP SWAP2 SWAP1 POP JUMP JUMPDEST PUSH0 PUSH20 0xFFFFFFFFFFFFFFFFFFFFFFFFFFFFFFFFFFFFFFFF DUP3 AND SWAP1 POP SWAP2 SWAP1 POP JUMP JUMPDEST PUSH0 PUSH2 0x7D8 DUP3 PUSH2 0x7AF JUMP JUMPDEST SWAP1 POP SWAP2 SWAP1 POP JUMP JUMPDEST PUSH2 0x7E8 DUP2 PUSH2 0x7CE JUMP JUMPDEST DUP3 MSTORE POP POP JUMP JUMPDEST PUSH0 PUSH1 0x20 DUP3 ADD SWAP1 POP PUSH2 0x801 PUSH0 DUP4 ADD DUP5 PUSH2 0x7DF JUMP JUMPDEST SWAP3 SWAP2 POP POP JUMP JUMPDEST PUSH0 DUP2 ISZERO ISZERO SWAP1 POP SWAP2 SWAP1 POP JUMP JUMPDEST PUSH2 0x81B DUP2 PUSH2 0x807 JUMP JUMPDEST DUP3 MSTORE POP POP JUMP JUMPDEST PUSH0 PUSH1 0x20 DUP3 ADD SWAP1 POP PUSH2 0x834 PUSH0 DUP4 ADD DUP5 PUSH2 0x812 JUMP JUMPDEST SWAP3 SWAP2 POP POP JUMP JUMPDEST PUSH0 DUP2 SWAP1 POP SWAP2 SWAP1 POP JUMP JUMPDEST PUSH2 0x84C DUP2 PUSH2 0x83A JUMP JUMPDEST DUP3 MSTORE POP POP JUMP JUMPDEST PUSH0 PUSH1 0x20 DUP3 ADD SWAP1 POP PUSH2 0x865 PUSH0 DUP4 ADD DUP5 PUSH2 0x843 JUMP JUMPDEST SWAP3 SWAP2 POP POP JUMP JUMPDEST PUSH0 PUSH2 0x875 DUP3 PUSH2 0x7AF JUMP JUMPDEST SWAP1 POP SWAP2 SWAP1 POP JUMP JUMPDEST PUSH2 0x885 DUP2 PUSH2 0x86B JUMP JUMPDEST DUP3 MSTORE POP POP JUMP JUMPDEST PUSH0 PUSH1 0x20 DUP3 ADD SWAP1 POP PUSH2 0x89E PUSH0 DUP4 ADD DUP5 PUSH2 0x87C JUMP JUMPDEST SWAP3 SWAP2 POP POP JUMP JUMPDEST PUSH32 0x4E487B7100000000000000000000000000000000000000000000000000000000 PUSH0 MSTORE PUSH1 0x11 PUSH1 0x4 MSTORE PUSH1 0x24 PUSH0 REVERT JUMPDEST PUSH0 PUSH2 0x8DB DUP3 PUSH2 0x83A JUMP JUMPDEST SWAP2 POP PUSH2 0x8E6 DUP4 PUSH2 0x83A JUMP JUMPDEST SWAP3 POP DUP3 DUP3 ADD SWAP1 POP DUP1 DUP3 GT ISZERO PUSH2 0x8FE JUMPI PUSH2 0x8FD PUSH2 0x8A4 JUMP JUMPDEST JUMPDEST SWAP3 SWAP2 POP POP JUMP JUMPDEST PUSH0 PUSH1 0x40 DUP3 ADD SWAP1 POP PUSH2 0x917 PUSH0 DUP4 ADD DUP6 PUSH2 0x87C JUMP JUMPDEST PUSH2 0x924 PUSH1 0x20 DUP4 ADD DUP5 PUSH2 0x843 JUMP JUMPDEST SWAP4 SWAP3 POP POP POP JUMP JUMPDEST PUSH0 DUP2 SWAP1 POP SWAP3 SWAP2 POP POP JUMP JUMPDEST POP JUMP JUMPDEST PUSH0 PUSH2 0x943 PUSH0 DUP4 PUSH2 0x92B JUMP JUMPDEST SWAP2 POP PUSH2 0x94E DUP3 PUSH2 0x935 JUMP JUMPDEST PUSH0 DUP3 ADD SWAP1 POP SWAP2 SWAP1 POP JUMP JUMPDEST PUSH0 PUSH2 0x962 DUP3 PUSH2 0x938 JUMP JUMPDEST SWAP2 POP DUP2 SWAP1 POP SWAP2 SWAP1 POP JUMP JUMPDEST PUSH32 0x5472616E73666572206661696C65642E00000000000000000000000000000000 PUSH0 DUP3 ADD MSTORE POP JUMP JUMPDEST PUSH0 PUSH2 0x9A0 PUSH1 0x10 DUP4 PUSH2 0x6CF JUMP JUMPDEST SWAP2 POP PUSH2 0x9AB DUP3 PUSH2 0x96C JUMP JUMPDEST PUSH1 0x20 DUP3 ADD SWAP1 POP SWAP2 SWAP1 POP JUMP JUMPDEST PUSH0 PUSH1 0x20 DUP3 ADD SWAP1 POP DUP2 DUP2 SUB PUSH0 DUP4 ADD MSTORE PUSH2 0x9CD DUP2 PUSH2 0x994 JUMP JUMPDEST SWAP1 POP SWAP2 SWAP1 POP JUMP INVALID LOG2 PUSH5 0x6970667358 0x22 SLT KECCAK256 0x4F 0x2A 0xA7 0xC4 LOG1 0x4C TLOAD 0x2D 0xD1 EXTCODECOPY 0xF 0xFC PUSH22 0xBD8A30D1A0CD6E5F061619771A67E4FC1276DD64736F PUSH13 0x63430008180033000000000000 "
				},
				"gasEstimates": {
					"creation": {
						"codeDepositCost": "514000",
						"executionCost": "infinite",
						"totalCost": "infinite"
					},
					"external": {
						"": "445",
						"auctionEnd()": "infinite",
						"auctionEndTime()": "2447",
						"beneficiary()": "2550",
						"bid()": "infinite",
						"highestBid()": "2491",
						"highestBidder()": "2552",
						"withdraw()": "infinite"
					}
				},
				"methodIdentifiers": {
					"auctionEnd()": "2a24f46c",
					"auctionEndTime()": "4b449cba",
					"beneficiary()": "38af3eed",
					"bid()": "1998aeef",
					"highestBid()": "d57bde79",
					"highestBidder()": "91f90157",
					"withdraw()": "3ccfd60b"
				}
			},
			"storageLayout": {
				"storage": [
					{
						"astId": 4,
						"contract": "contracts/SimpleAuction.sol:SimpleAuction",
						"label": "beneficiary",
						"offset": 0,
						"slot": "0",
						"type": "t_address_payable"
					},
					{
						"astId": 6,
						"contract": "contracts/SimpleAuction.sol:SimpleAuction",
						"label": "auctionEndTime",
						"offset": 0,
						"slot": "1",
						"type": "t_uint256"
					},
					{
						"astId": 8,
						"contract": "contracts/SimpleAuction.sol:SimpleAuction",
						"label": "highestBidder",
						"offset": 0,
						"slot": "2",
						"type": "t_address"
					},
					{
						"astId": 10,
						"contract": "contracts/SimpleAuction.sol:SimpleAuction",
						"label": "highestBid",
						"offset": 0,
						"slot": "3",
						"type": "t_uint256"
					},
					{
						"astId": 14,
						"contract": "contracts/SimpleAuction.sol:SimpleAuction",
						"label": "pendingReturns",
						"offset": 0,
						"slot": "4",
						"type": "t_mapping(t_address,t_uint256)"
					},
					{
						"astId": 16,
						"contract": "contracts/SimpleAuction.sol:SimpleAuction",
						"label": "ended",
						"offset": 0,
						"slot": "5",
						"type": "t_bool"
					}
				],
				"types": {
					"t_address": {
						"encoding": "inplace",
						"label": "address",
						"numberOfBytes": "20"
					},
					"t_address_payable": {
						"encoding": "inplace",
						"label": "address payable",
						"numberOfBytes": "20"
					},
					"t_bool": {
						"encoding": "inplace",
						"label": "bool",
						"numberOfBytes": "1"
					},
					"t_mapping(t_address,t_uint256)": {
						"encoding": "mapping",
						"key": "t_address",
						"label": "mapping(address => uint256)",
						"numberOfBytes": "32",
						"value": "t_uint256"
					},
					"t_uint256": {
						"encoding": "inplace",
						"label": "uint256",
						"numberOfBytes": "32"
					}
				}
			},
			"userdoc": {
				"kind": "user",
				"methods": {},
				"version": 1
			}
		}
	}
}